{
  "abi": [
    {
      "type": "function",
      "name": "collectionToTokens",
      "inputs": [
        {
          "name": "",
          "type": "address",
          "internalType": "address"
        },
        {
          "name": "",
          "type": "uint256",
          "internalType": "uint256"
        }
      ],
      "outputs": [
        {
          "name": "",
          "type": "uint256",
          "internalType": "uint256"
        }
      ],
      "stateMutability": "view"
    },
    {
      "type": "function",
      "name": "collections",
      "inputs": [
        {
          "name": "",
          "type": "uint256",
          "internalType": "uint256"
        }
      ],
      "outputs": [
        {
          "name": "name",
          "type": "string",
          "internalType": "string"
        },
        {
          "name": "symbol",
          "type": "string",
          "internalType": "string"
        },
        {
          "name": "description",
          "type": "string",
          "internalType": "string"
        },
        {
          "name": "image",
          "type": "string",
          "internalType": "string"
        },
        {
          "name": "contractAddress",
          "type": "address",
          "internalType": "address"
        },
        {
          "name": "creator",
          "type": "address",
          "internalType": "address"
        }
      ],
      "stateMutability": "view"
    },
    {
      "type": "function",
      "name": "createNewCollection",
      "inputs": [
        {
          "name": "name",
          "type": "string",
          "internalType": "string"
        },
        {
          "name": "symbol",
          "type": "string",
          "internalType": "string"
        }
      ],
      "outputs": [
        {
          "name": "",
          "type": "address",
          "internalType": "address"
        }
      ],
      "stateMutability": "nonpayable"
    },
    {
      "type": "function",
      "name": "getAllCollections",
      "inputs": [],
      "outputs": [
        {
          "name": "",
          "type": "tuple[]",
          "internalType": "struct NFTFactory.Collection[]",
          "components": [
            {
              "name": "name",
              "type": "string",
              "internalType": "string"
            },
            {
              "name": "symbol",
              "type": "string",
              "internalType": "string"
            },
            {
              "name": "description",
              "type": "string",
              "internalType": "string"
            },
            {
              "name": "image",
              "type": "string",
              "internalType": "string"
            },
            {
              "name": "contractAddress",
              "type": "address",
              "internalType": "address"
            },
            {
              "name": "creator",
              "type": "address",
              "internalType": "address"
            }
          ]
        }
      ],
      "stateMutability": "view"
    },
    {
      "type": "function",
      "name": "getCollectionTokens",
      "inputs": [
        {
          "name": "collectionAdd",
          "type": "address",
          "internalType": "address"
        }
      ],
      "outputs": [
        {
          "name": "",
          "type": "uint256[]",
          "internalType": "uint256[]"
        }
      ],
      "stateMutability": "view"
    },
    {
      "type": "function",
      "name": "getUserCollectionAtIndex",
      "inputs": [
        {
          "name": "userAddress",
          "type": "address",
          "internalType": "address"
        },
        {
          "name": "index",
          "type": "uint256",
          "internalType": "uint256"
        }
      ],
      "outputs": [
        {
          "name": "",
          "type": "tuple",
          "internalType": "struct NFTFactory.Collection",
          "components": [
            {
              "name": "name",
              "type": "string",
              "internalType": "string"
            },
            {
              "name": "symbol",
              "type": "string",
              "internalType": "string"
            },
            {
              "name": "description",
              "type": "string",
              "internalType": "string"
            },
            {
              "name": "image",
              "type": "string",
              "internalType": "string"
            },
            {
              "name": "contractAddress",
              "type": "address",
              "internalType": "address"
            },
            {
              "name": "creator",
              "type": "address",
              "internalType": "address"
            }
          ]
        }
      ],
      "stateMutability": "view"
    },
    {
      "type": "function",
      "name": "getUserCollections",
      "inputs": [
        {
          "name": "userAddress",
          "type": "address",
          "internalType": "address"
        }
      ],
      "outputs": [
        {
          "name": "",
          "type": "tuple[]",
          "internalType": "struct NFTFactory.Collection[]",
          "components": [
            {
              "name": "name",
              "type": "string",
              "internalType": "string"
            },
            {
              "name": "symbol",
              "type": "string",
              "internalType": "string"
            },
            {
              "name": "description",
              "type": "string",
              "internalType": "string"
            },
            {
              "name": "image",
              "type": "string",
              "internalType": "string"
            },
            {
              "name": "contractAddress",
              "type": "address",
              "internalType": "address"
            },
            {
              "name": "creator",
              "type": "address",
              "internalType": "address"
            }
          ]
        }
      ],
      "stateMutability": "view"
    },
    {
      "type": "function",
      "name": "isHTTPS",
      "inputs": [
        {
          "name": "_link",
          "type": "string",
          "internalType": "string"
        }
      ],
      "outputs": [
        {
          "name": "",
          "type": "bool",
          "internalType": "bool"
        }
      ],
      "stateMutability": "pure"
    },
    {
      "type": "function",
      "name": "mintNFT",
      "inputs": [
        {
          "name": "collectionAdd",
          "type": "address",
          "internalType": "address"
        },
        {
          "name": "tokenURI",
          "type": "string",
          "internalType": "string"
        }
      ],
      "outputs": [],
      "stateMutability": "nonpayable"
    },
    {
      "type": "function",
      "name": "userCollections",
      "inputs": [
        {
          "name": "",
          "type": "address",
          "internalType": "address"
        },
        {
          "name": "",
          "type": "uint256",
          "internalType": "uint256"
        }
      ],
      "outputs": [
        {
          "name": "name",
          "type": "string",
          "internalType": "string"
        },
        {
          "name": "symbol",
          "type": "string",
          "internalType": "string"
        },
        {
          "name": "description",
          "type": "string",
          "internalType": "string"
        },
        {
          "name": "image",
          "type": "string",
          "internalType": "string"
        },
        {
          "name": "contractAddress",
          "type": "address",
          "internalType": "address"
        },
        {
          "name": "creator",
          "type": "address",
          "internalType": "address"
        }
      ],
      "stateMutability": "view"
    },
    {
      "type": "event",
      "name": "CollectionCreated",
      "inputs": [
        {
          "name": "name",
          "type": "string",
          "indexed": false,
          "internalType": "string"
        },
        {
          "name": "description",
          "type": "string",
          "indexed": false,
          "internalType": "string"
        },
        {
          "name": "contractAddress",
          "type": "address",
          "indexed": false,
          "internalType": "address"
        },
        {
          "name": "creator",
          "type": "address",
          "indexed": false,
          "internalType": "address"
        }
      ],
      "anonymous": false
    },
    {
      "type": "event",
      "name": "NFTMinted",
      "inputs": [
        {
          "name": "collectionAddress",
          "type": "address",
          "indexed": false,
          "internalType": "address"
        },
        {
          "name": "minter",
          "type": "address",
          "indexed": false,
          "internalType": "address"
        },
        {
          "name": "tokenId",
          "type": "uint256",
          "indexed": false,
          "internalType": "uint256"
        }
      ],
      "anonymous": false
    }
  ],
  "bytecode": {
    "object": "0x6080604052348015600e575f5ffd5b506136288061001c5f395ff3fe608060405234801561000f575f5ffd5b506004361061009b575f3560e01c80639aa5ad8c116100635780639aa5ad8c14610141578063e12ade2614610154578063eacabe1414610175578063f1b5a4271461018a578063fdbda0ec146101b5575f5ffd5b806324eac9191461009f5780633ed87794146100c7578063428a6171146100e75780636804a9581461010c5780636bbdb81214610121575b5f5ffd5b6100b26100ad366004611624565b6101c8565b60405190151581526020015b60405180910390f35b6100da6100d5366004611675565b610365565b6040516100be919061175d565b6100fa6100f5366004611675565b6106b8565b6040516100be9695949392919061176f565b61011461092f565b6040516100be91906117e2565b61013461012f366004611845565b610bef565b6040516100be9190611860565b61011461014f366004611845565b610c58565b610167610162366004611675565b610f2f565b6040519081526020016100be565b6101886101833660046118a2565b610f5a565b005b61019d6101983660046118ef565b611188565b6040516001600160a01b0390911681526020016100be565b6100fa6101c336600461193e565b6113fd565b5f5f8290506008815110156101df57505f92915050565b805f815181106101f1576101f1611955565b6020910101516001600160f81b031916600d60fb1b14801561023857508060018151811061022157610221611955565b6020910101516001600160f81b031916601d60fa1b145b801561026957508060028151811061025257610252611955565b6020910101516001600160f81b031916601d60fa1b145b801561029a57508060038151811061028357610283611955565b6020910101516001600160f81b031916600760fc1b145b80156102cb5750806004815181106102b4576102b4611955565b6020910101516001600160f81b031916607360f81b145b80156102fc5750806005815181106102e5576102e5611955565b6020910101516001600160f81b031916601d60f91b145b801561032d57508060068151811061031657610316611955565b6020910101516001600160f81b031916602f60f81b145b801561035e57508060078151811061034757610347611955565b6020910101516001600160f81b031916602f60f81b145b9392505050565b6103ae6040518060c00160405280606081526020016060815260200160608152602001606081526020015f6001600160a01b031681526020015f6001600160a01b031681525090565b6001600160a01b0383165f9081526001602052604090205482908490821061040d5760405162461bcd60e51b815260206004820152600d60248201526c092dcecc2d8d2c840d2dcc8caf609b1b60448201526064015b60405180910390fd5b6001600160a01b0385165f90815260016020526040902080548590811061043657610436611955565b905f5260205f2090600602016040518060c00160405290815f8201805461045c90611969565b80601f016020809104026020016040519081016040528092919081815260200182805461048890611969565b80156104d35780601f106104aa576101008083540402835291602001916104d3565b820191905f5260205f20905b8154815290600101906020018083116104b657829003601f168201915b505050505081526020016001820180546104ec90611969565b80601f016020809104026020016040519081016040528092919081815260200182805461051890611969565b80156105635780601f1061053a57610100808354040283529160200191610563565b820191905f5260205f20905b81548152906001019060200180831161054657829003601f168201915b5050505050815260200160028201805461057c90611969565b80601f01602080910402602001604051908101604052809291908181526020018280546105a890611969565b80156105f35780601f106105ca576101008083540402835291602001916105f3565b820191905f5260205f20905b8154815290600101906020018083116105d657829003601f168201915b5050505050815260200160038201805461060c90611969565b80601f016020809104026020016040519081016040528092919081815260200182805461063890611969565b80156106835780601f1061065a57610100808354040283529160200191610683565b820191905f5260205f20905b81548152906001019060200180831161066657829003601f168201915b505050918352505060048201546001600160a01b03908116602083015260059092015490911660409091015295945050505050565b6001602052815f5260405f2081815481106106d1575f80fd5b905f5260205f2090600602015f9150915050805f0180546106f190611969565b80601f016020809104026020016040519081016040528092919081815260200182805461071d90611969565b80156107685780601f1061073f57610100808354040283529160200191610768565b820191905f5260205f20905b81548152906001019060200180831161074b57829003601f168201915b50505050509080600101805461077d90611969565b80601f01602080910402602001604051908101604052809291908181526020018280546107a990611969565b80156107f45780601f106107cb576101008083540402835291602001916107f4565b820191905f5260205f20905b8154815290600101906020018083116107d757829003601f168201915b50505050509080600201805461080990611969565b80601f016020809104026020016040519081016040528092919081815260200182805461083590611969565b80156108805780601f1061085757610100808354040283529160200191610880565b820191905f5260205f20905b81548152906001019060200180831161086357829003601f168201915b50505050509080600301805461089590611969565b80601f01602080910402602001604051908101604052809291908181526020018280546108c190611969565b801561090c5780601f106108e35761010080835404028352916020019161090c565b820191905f5260205f20905b8154815290600101906020018083116108ef57829003601f168201915b50505050600483015460059093015491926001600160a01b039081169216905086565b60605f805480602002602001604051908101604052809291908181526020015f905b82821015610be6578382905f5260205f2090600602016040518060c00160405290815f8201805461098190611969565b80601f01602080910402602001604051908101604052809291908181526020018280546109ad90611969565b80156109f85780601f106109cf576101008083540402835291602001916109f8565b820191905f5260205f20905b8154815290600101906020018083116109db57829003601f168201915b50505050508152602001600182018054610a1190611969565b80601f0160208091040260200160405190810160405280929190818152602001828054610a3d90611969565b8015610a885780601f10610a5f57610100808354040283529160200191610a88565b820191905f5260205f20905b815481529060010190602001808311610a6b57829003601f168201915b50505050508152602001600282018054610aa190611969565b80601f0160208091040260200160405190810160405280929190818152602001828054610acd90611969565b8015610b185780601f10610aef57610100808354040283529160200191610b18565b820191905f5260205f20905b815481529060010190602001808311610afb57829003601f168201915b50505050508152602001600382018054610b3190611969565b80601f0160208091040260200160405190810160405280929190818152602001828054610b5d90611969565b8015610ba85780601f10610b7f57610100808354040283529160200191610ba8565b820191905f5260205f20905b815481529060010190602001808311610b8b57829003601f168201915b505050918352505060048201546001600160a01b03908116602080840191909152600590930154166040909101529082526001929092019101610951565b50505050905090565b6001600160a01b0381165f90815260026020908152604091829020805483518184028101840190945280845260609392830182828015610c4c57602002820191905f5260205f20905b815481526020019060010190808311610c38575b50505050509050919050565b6001600160a01b0381165f908152600160209081526040808320805482518185028101850190935280835260609492939192909184015b82821015610f24578382905f5260205f2090600602016040518060c00160405290815f82018054610cbf90611969565b80601f0160208091040260200160405190810160405280929190818152602001828054610ceb90611969565b8015610d365780601f10610d0d57610100808354040283529160200191610d36565b820191905f5260205f20905b815481529060010190602001808311610d1957829003601f168201915b50505050508152602001600182018054610d4f90611969565b80601f0160208091040260200160405190810160405280929190818152602001828054610d7b90611969565b8015610dc65780601f10610d9d57610100808354040283529160200191610dc6565b820191905f5260205f20905b815481529060010190602001808311610da957829003601f168201915b50505050508152602001600282018054610ddf90611969565b80601f0160208091040260200160405190810160405280929190818152602001828054610e0b90611969565b8015610e565780601f10610e2d57610100808354040283529160200191610e56565b820191905f5260205f20905b815481529060010190602001808311610e3957829003601f168201915b50505050508152602001600382018054610e6f90611969565b80601f0160208091040260200160405190810160405280929190818152602001828054610e9b90611969565b8015610ee65780601f10610ebd57610100808354040283529160200191610ee6565b820191905f5260205f20905b815481529060010190602001808311610ec957829003601f168201915b505050918352505060048201546001600160a01b03908116602080840191909152600590930154166040909101529082526001929092019101610c8f565b505050509050919050565b6002602052815f5260405f208181548110610f48575f80fd5b905f5260205f20015f91509150505481565b805f815111610f9f5760405162461bcd60e51b8152602060048201526011602482015270496e76616c696420746f6b656e2055524960781b6044820152606401610404565b610fa88261142a565b80610fb75750610fb7826101c8565b610ff75760405162461bcd60e51b8152602060048201526011602482015270496e76616c696420746f6b656e2055524960781b6044820152606401610404565b5f836001600160a01b0316638da5cb5b6040518163ffffffff1660e01b8152600401602060405180830381865afa158015611034573d5f5f3e3d5ffd5b505050506040513d601f19601f8201168201806040525081019061105891906119a1565b9050336001600160a01b038216146110a35760405162461bcd60e51b815260206004820152600e60248201526d139bdd08185d5d1a1bdc9a5e995960921b6044820152606401610404565b60405163d0def52160e01b81525f906001600160a01b0386169063d0def521906110d390339088906004016119bc565b6020604051808303815f875af11580156110ef573d5f5f3e3d5ffd5b505050506040513d601f19601f8201168201806040525081019061111391906119df565b6001600160a01b0386165f8181526002602090815260408083208054600181018255908452928290209092018490558151928352339083015281018290529091507f2f7377f0470ca5f5d5bcb55c33ff5e20e0a2653933e0615e99f01e81640d0a929060600160405180910390a15050505050565b5f5f8351116111c95760405162461bcd60e51b815260206004820152600d60248201526c13985b59481c995c5d5a5c9959609a1b6044820152606401610404565b5f8383336040516111d990611578565b6111e5939291906119f6565b604051809103905ff0801580156111fe573d5f5f3e3d5ffd5b506040805160c0810182528681526020808201879052825180820184525f80825283850191909152835191820190935282815260608201526001600160a01b03831660808201523360a0820152815460018101835591805280519293509182916006027f290decd9548b62a8d60345a988386fc84ba6bc95484008f6362f93160ef3e563019081906112909082611a7f565b50602082015160018201906112a59082611a7f565b50604082015160028201906112ba9082611a7f565b50606082015160038201906112cf9082611a7f565b5060808201516004820180546001600160a01b03199081166001600160a01b039384161790915560a090930151600590920180549093169116179055335f90815260016020818152604083208054928301815583529091208251839260060290910190819061133e9082611a7f565b50602082015160018201906113539082611a7f565b50604082015160028201906113689082611a7f565b506060820151600382019061137d9082611a7f565b5060808201516004820180546001600160a01b03199081166001600160a01b039384161790915560a0909301516005909201805490931691161790556040517fb39b6b10f6d49d6ba85a1ceebaa7c6684718aa39146f4ddfbccaf8899e76386a906113ed90879085903390611b3a565b60405180910390a1509392505050565b5f818154811061140b575f80fd5b905f5260205f2090600602015f91509050805f0180546106f190611969565b5f5f82905060078151101561144157505f92915050565b805f8151811061145357611453611955565b6020910101516001600160f81b031916606960f81b14801561149a57508060018151811061148357611483611955565b6020910101516001600160f81b031916600760fc1b145b80156114cb5750806002815181106114b4576114b4611955565b6020910101516001600160f81b031916603360f91b145b80156114fc5750806003815181106114e5576114e5611955565b6020910101516001600160f81b031916607360f81b145b801561152d57508060048151811061151657611516611955565b6020910101516001600160f81b031916601d60f91b145b801561155e57508060058151811061154757611547611955565b6020910101516001600160f81b031916602f60f81b145b801561035e57508060068151811061034757610347611955565b611a7380611b8083390190565b634e487b7160e01b5f52604160045260245ffd5b5f82601f8301126115a8575f5ffd5b813567ffffffffffffffff8111156115c2576115c2611585565b604051601f8201601f19908116603f0116810167ffffffffffffffff811182821017156115f1576115f1611585565b604052818152838201602001851015611608575f5ffd5b816020850160208301375f918101602001919091529392505050565b5f60208284031215611634575f5ffd5b813567ffffffffffffffff81111561164a575f5ffd5b61165684828501611599565b949350505050565b6001600160a01b0381168114611672575f5ffd5b50565b5f5f60408385031215611686575f5ffd5b82356116918161165e565b946020939093013593505050565b5f81518084528060208401602086015e5f602082860101526020601f19601f83011685010191505092915050565b5f815160c084526116e160c085018261169f565b9050602083015184820360208601526116fa828261169f565b91505060408301518482036040860152611714828261169f565b9150506060830151848203606086015261172e828261169f565b6080858101516001600160a01b039081169188019190915260a095860151169590940194909452509092915050565b602081525f61035e60208301846116cd565b60c081525f61178160c083018961169f565b8281036020840152611793818961169f565b905082810360408401526117a7818861169f565b905082810360608401526117bb818761169f565b6001600160a01b0395861660808501529390941660a0909201919091525095945050505050565b5f602082016020835280845180835260408501915060408160051b8601019250602086015f5b8281101561183957603f198786030184526118248583516116cd565b94506020938401939190910190600101611808565b50929695505050505050565b5f60208284031215611855575f5ffd5b813561035e8161165e565b602080825282518282018190525f918401906040840190835b81811015611897578351835260209384019390920191600101611879565b509095945050505050565b5f5f604083850312156118b3575f5ffd5b82356118be8161165e565b9150602083013567ffffffffffffffff8111156118d9575f5ffd5b6118e585828601611599565b9150509250929050565b5f5f60408385031215611900575f5ffd5b823567ffffffffffffffff811115611916575f5ffd5b61192285828601611599565b925050602083013567ffffffffffffffff8111156118d9575f5ffd5b5f6020828403121561194e575f5ffd5b5035919050565b634e487b7160e01b5f52603260045260245ffd5b600181811c9082168061197d57607f821691505b60208210810361199b57634e487b7160e01b5f52602260045260245ffd5b50919050565b5f602082840312156119b1575f5ffd5b815161035e8161165e565b6001600160a01b03831681526040602082018190525f906116569083018461169f565b5f602082840312156119ef575f5ffd5b5051919050565b606081525f611a08606083018661169f565b8281036020840152611a1a818661169f565b91505060018060a01b0383166040830152949350505050565b601f821115611a7a57805f5260205f20601f840160051c81016020851015611a585750805b601f840160051c820191505b81811015611a77575f8155600101611a64565b50505b505050565b815167ffffffffffffffff811115611a9957611a99611585565b611aad81611aa78454611969565b84611a33565b6020601f821160018114611adf575f8315611ac85750848201515b5f19600385901b1c1916600184901b178455611a77565b5f84815260208120601f198516915b82811015611b0e5787850151825560209485019460019092019101611aee565b5084821015611b2b57868401515f19600387901b60f8161c191681555b50505050600190811b01905550565b608081525f611b4c608083018661169f565b8281036020808501919091525f82526001600160a01b03958616604085015293909416606090920191909152500191905056fe608060405234801561000f575f5ffd5b50604051611a73380380611a7383398101604081905261002e916102be565b8083835f61003c83826103c7565b50600161004982826103c7565b5050506001600160a01b03811661007a57604051631e4fbdf760e01b81525f60048201526024015b60405180910390fd5b6100838161014e565b506001600160a01b0381166100da5760405162461bcd60e51b815260206004820152601560248201527f496e76616c6964206f776e6572206164647265737300000000000000000000006044820152606401610071565b60408051808201909152600b81526a36b9b39739b2b73232b91d60a91b6020820152610106903361019f565b60408051808201909152600d81526c37bbb732b9103830b9b9b2b21d60991b6020820152610134908261019f565b5050600980546001600160a01b03191633179055506104c8565b600780546001600160a01b038381166001600160a01b0319831681179093556040519116919082907f8be0079c531659141344cd1fd0a4f28419497f9722a3daafe3b4186f6b6457e0905f90a35050565b6101e882826040516024016101b5929190610481565b60408051601f198184030181529190526020810180516001600160e01b0390811663319af33360e01b179091526101ec16565b5050565b6101ff8161020260201b6107dc1760201c565b50565b5f6a636f6e736f6c652e6c6f6790505f5f835160208501845afa505050565b634e487b7160e01b5f52604160045260245ffd5b5f82601f830112610244575f5ffd5b81516001600160401b0381111561025d5761025d610221565b604051601f8201601f19908116603f011681016001600160401b038111828210171561028b5761028b610221565b6040528181528382016020018510156102a2575f5ffd5b8160208501602083015e5f918101602001919091529392505050565b5f5f5f606084860312156102d0575f5ffd5b83516001600160401b038111156102e5575f5ffd5b6102f186828701610235565b602086015190945090506001600160401b0381111561030e575f5ffd5b61031a86828701610235565b604086015190935090506001600160a01b0381168114610338575f5ffd5b809150509250925092565b600181811c9082168061035757607f821691505b60208210810361037557634e487b7160e01b5f52602260045260245ffd5b50919050565b601f8211156103c257805f5260205f20601f840160051c810160208510156103a05750805b601f840160051c820191505b818110156103bf575f81556001016103ac565b50505b505050565b81516001600160401b038111156103e0576103e0610221565b6103f4816103ee8454610343565b8461037b565b6020601f821160018114610426575f831561040f5750848201515b5f19600385901b1c1916600184901b1784556103bf565b5f84815260208120601f198516915b828110156104555787850151825560209485019460019092019101610435565b508482101561047257868401515f19600387901b60f8161c191681555b50505050600190811b01905550565b604081525f83518060408401528060208601606085015e5f60608285018101919091526001600160a01b03949094166020840152601f01601f191690910190910192915050565b61159e806104d55f395ff3fe608060405234801561000f575f5ffd5b5060043610610132575f3560e01c80637ef758d4116100b4578063b88d4fde11610079578063b88d4fde14610272578063c45a015514610285578063c87b56dd14610298578063d0def521146102ab578063e985e9c5146102be578063f2fde38b146102d1575f5ffd5b80637ef758d41461022a5780638da5cb5b1461023d57806395d89b411461024e57806398bdf6f514610256578063a22cb4651461025f575f5ffd5b806342842e0e116100fa57806342842e0e146101c65780636352211e146101d957806363c7ae02146101ec57806370a0823114610201578063715018a614610222575f5ffd5b806301ffc9a71461013657806306fdde031461015e578063081812fc14610173578063095ea7b31461019e57806323b872dd146101b3575b5f5ffd5b610149610144366004611063565b6102e4565b60405190151581526020015b60405180910390f35b61016661030e565b60405161015591906110ac565b6101866101813660046110be565b61039d565b6040516001600160a01b039091168152602001610155565b6101b16101ac3660046110f0565b6103c4565b005b6101b16101c1366004611118565b6103d3565b6101b16101d4366004611118565b610461565b6101866101e73660046110be565b610480565b6101f461048a565b6040516101559190611152565b61021461020f366004611194565b6104df565b604051908152602001610155565b6101b1610524565b6102146102383660046110be565b610537565b6007546001600160a01b0316610186565b610166610556565b61021460085481565b6101b161026d3660046111ad565b610565565b6101b1610280366004611271565b610570565b600954610186906001600160a01b031681565b6101666102a63660046110be565b610588565b6102146102b93660046112e8565b610693565b6101496102cc366004611346565b610772565b6101b16102df366004611194565b61079f565b5f6001600160e01b03198216632483248360e11b14806103085750610308826107fb565b92915050565b60605f805461031c90611377565b80601f016020809104026020016040519081016040528092919081815260200182805461034890611377565b80156103935780601f1061036a57610100808354040283529160200191610393565b820191905f5260205f20905b81548152906001019060200180831161037657829003601f168201915b5050505050905090565b5f6103a78261084a565b505f828152600460205260409020546001600160a01b0316610308565b6103cf828233610882565b5050565b6001600160a01b03821661040157604051633250574960e11b81525f60048201526024015b60405180910390fd5b5f61040d83833361088f565b9050836001600160a01b0316816001600160a01b03161461045b576040516364283d7b60e01b81526001600160a01b03808616600483015260248201849052821660448201526064016103f8565b50505050565b61047b83838360405180602001604052805f815250610570565b505050565b5f6103088261084a565b6060600a80548060200260200160405190810160405280929190818152602001828054801561039357602002820191905f5260205f20905b8154815260200190600101908083116104c2575050505050905090565b5f6001600160a01b038216610509576040516322718ad960e21b81525f60048201526024016103f8565b506001600160a01b03165f9081526003602052604090205490565b61052c610981565b6105355f6109ae565b565b600a8181548110610546575f80fd5b5f91825260209091200154905081565b60606001805461031c90611377565b6103cf3383836109ff565b61057b8484846103d3565b61045b3385858585610a9d565b60606105938261084a565b505f82815260066020526040812080546105ac90611377565b80601f01602080910402602001604051908101604052809291908181526020018280546105d890611377565b80156106235780601f106105fa57610100808354040283529160200191610623565b820191905f5260205f20905b81548152906001019060200180831161060657829003601f168201915b505050505090505f61063f60408051602081019091525f815290565b905080515f03610650575092915050565b81511561068257808260405160200161066a9291906113c6565b60405160208183030381529060405292505050919050565b61068b84610bc5565b949350505050565b5f6106a66007546001600160a01b031690565b6001600160a01b0316336001600160a01b031614806106cf57506009546001600160a01b031633145b61070c5760405162461bcd60e51b815260206004820152600e60248201526d139bdd08185d5d1a1bdc9a5e995960921b60448201526064016103f8565b60088054905f61071b836113da565b909155505060085461072d8482610c36565b6107378184610c4f565b600a80546001810182555f919091527fc65a7bb8d6351c1cf70c95a316cc6a92839c986682d98bc35f958f4883f9d2a8018190559392505050565b6001600160a01b039182165f90815260056020908152604080832093909416825291909152205460ff1690565b6107a7610981565b6001600160a01b0381166107d057604051631e4fbdf760e01b81525f60048201526024016103f8565b6107d9816109ae565b50565b5f6a636f6e736f6c652e6c6f6790505f5f835160208501845afa505050565b5f6001600160e01b031982166380ac58cd60e01b148061082b57506001600160e01b03198216635b5e139f60e01b145b8061030857506301ffc9a760e01b6001600160e01b0319831614610308565b5f818152600260205260408120546001600160a01b03168061030857604051637e27328960e01b8152600481018490526024016103f8565b61047b8383836001610c9e565b5f828152600260205260408120546001600160a01b03908116908316156108bb576108bb818486610da2565b6001600160a01b038116156108f5576108d65f855f5f610c9e565b6001600160a01b0381165f90815260036020526040902080545f190190555b6001600160a01b03851615610923576001600160a01b0385165f908152600360205260409020805460010190555b5f8481526002602052604080822080546001600160a01b0319166001600160a01b0389811691821790925591518793918516917fddf252ad1be2c89b69c2b068fc378daa952ba7f163c4a11628f55a4df523b3ef91a4949350505050565b6007546001600160a01b031633146105355760405163118cdaa760e01b81523360048201526024016103f8565b600780546001600160a01b038381166001600160a01b0319831681179093556040519116919082907f8be0079c531659141344cd1fd0a4f28419497f9722a3daafe3b4186f6b6457e0905f90a35050565b6001600160a01b038216610a3157604051630b61174360e31b81526001600160a01b03831660048201526024016103f8565b6001600160a01b038381165f81815260056020908152604080832094871680845294825291829020805460ff191686151590811790915591519182527f17307eab39ab6107e8899845ad3d59bd9653f200f220920489ca2b5937696c31910160405180910390a3505050565b6001600160a01b0383163b15610bbe57604051630a85bd0160e11b81526001600160a01b0384169063150b7a0290610adf9088908890879087906004016113fe565b6020604051808303815f875af1925050508015610b19575060408051601f3d908101601f19168201909252610b169181019061143a565b60015b610b80573d808015610b46576040519150601f19603f3d011682016040523d82523d5f602084013e610b4b565b606091505b5080515f03610b7857604051633250574960e11b81526001600160a01b03851660048201526024016103f8565b805181602001fd5b6001600160e01b03198116630a85bd0160e11b14610bbc57604051633250574960e11b81526001600160a01b03851660048201526024016103f8565b505b5050505050565b6060610bd08261084a565b505f610be660408051602081019091525f815290565b90505f815111610c045760405180602001604052805f815250610c2f565b80610c0e84610e06565b604051602001610c1f9291906113c6565b6040516020818303038152906040525b9392505050565b6103cf828260405180602001604052805f815250610e96565b5f828152600660205260409020610c668282611499565b506040518281527ff8e1a15aba9398e019f0b49df1a4fde98ee17ae345cb5f6b5e2c27f5033e8ce79060200160405180910390a15050565b8080610cb257506001600160a01b03821615155b15610d73575f610cc18461084a565b90506001600160a01b03831615801590610ced5750826001600160a01b0316816001600160a01b031614155b8015610d005750610cfe8184610772565b155b15610d295760405163a9fbf51f60e01b81526001600160a01b03841660048201526024016103f8565b8115610d715783856001600160a01b0316826001600160a01b03167f8c5be1e5ebec7d5bd14f71427d1e84f3dd0314c0f7b2291e5b200ac8c7c3b92560405160405180910390a45b505b50505f90815260046020526040902080546001600160a01b0319166001600160a01b0392909216919091179055565b610dad838383610ead565b61047b576001600160a01b038316610ddb57604051637e27328960e01b8152600481018290526024016103f8565b60405163177e802f60e01b81526001600160a01b0383166004820152602481018290526044016103f8565b60605f610e1283610f0e565b60010190505f8167ffffffffffffffff811115610e3157610e316111e6565b6040519080825280601f01601f191660200182016040528015610e5b576020820181803683370190505b5090508181016020015b5f19016f181899199a1a9b1b9c1cb0b131b232b360811b600a86061a8153600a8504945084610e6557509392505050565b610ea08383610fe5565b61047b335f858585610a9d565b5f6001600160a01b0383161580159061068b5750826001600160a01b0316846001600160a01b03161480610ee65750610ee68484610772565b8061068b5750505f908152600460205260409020546001600160a01b03908116911614919050565b5f8072184f03e93ff9f4daa797ed6e38ed64bf6a1f0160401b8310610f4c5772184f03e93ff9f4daa797ed6e38ed64bf6a1f0160401b830492506040015b6d04ee2d6d415b85acef81000000008310610f78576d04ee2d6d415b85acef8100000000830492506020015b662386f26fc100008310610f9657662386f26fc10000830492506010015b6305f5e1008310610fae576305f5e100830492506008015b6127108310610fc257612710830492506004015b60648310610fd4576064830492506002015b600a83106103085760010192915050565b6001600160a01b03821661100e57604051633250574960e11b81525f60048201526024016103f8565b5f61101a83835f61088f565b90506001600160a01b0381161561047b576040516339e3563760e11b81525f60048201526024016103f8565b610535611554565b6001600160e01b0319811681146107d9575f5ffd5b5f60208284031215611073575f5ffd5b8135610c2f8161104e565b5f81518084528060208401602086015e5f602082860101526020601f19601f83011685010191505092915050565b602081525f610c2f602083018461107e565b5f602082840312156110ce575f5ffd5b5035919050565b80356001600160a01b03811681146110eb575f5ffd5b919050565b5f5f60408385031215611101575f5ffd5b61110a836110d5565b946020939093013593505050565b5f5f5f6060848603121561112a575f5ffd5b611133846110d5565b9250611141602085016110d5565b929592945050506040919091013590565b602080825282518282018190525f918401906040840190835b8181101561118957835183526020938401939092019160010161116b565b509095945050505050565b5f602082840312156111a4575f5ffd5b610c2f826110d5565b5f5f604083850312156111be575f5ffd5b6111c7836110d5565b9150602083013580151581146111db575f5ffd5b809150509250929050565b634e487b7160e01b5f52604160045260245ffd5b5f5f67ffffffffffffffff841115611214576112146111e6565b50604051601f19601f85018116603f0116810181811067ffffffffffffffff82111715611243576112436111e6565b60405283815290508082840185101561125a575f5ffd5b838360208301375f60208583010152509392505050565b5f5f5f5f60808587031215611284575f5ffd5b61128d856110d5565b935061129b602086016110d5565b925060408501359150606085013567ffffffffffffffff8111156112bd575f5ffd5b8501601f810187136112cd575f5ffd5b6112dc878235602084016111fa565b91505092959194509250565b5f5f604083850312156112f9575f5ffd5b611302836110d5565b9150602083013567ffffffffffffffff81111561131d575f5ffd5b8301601f8101851361132d575f5ffd5b61133c858235602084016111fa565b9150509250929050565b5f5f60408385031215611357575f5ffd5b611360836110d5565b915061136e602084016110d5565b90509250929050565b600181811c9082168061138b57607f821691505b6020821081036113a957634e487b7160e01b5f52602260045260245ffd5b50919050565b5f81518060208401855e5f93019283525090919050565b5f61068b6113d483866113af565b846113af565b5f600182016113f757634e487b7160e01b5f52601160045260245ffd5b5060010190565b6001600160a01b03858116825284166020820152604081018390526080606082018190525f906114309083018461107e565b9695505050505050565b5f6020828403121561144a575f5ffd5b8151610c2f8161104e565b601f82111561047b57805f5260205f20601f840160051c8101602085101561147a5750805b601f840160051c820191505b81811015610bbe575f8155600101611486565b815167ffffffffffffffff8111156114b3576114b36111e6565b6114c7816114c18454611377565b84611455565b6020601f8211600181146114f9575f83156114e25750848201515b5f19600385901b1c1916600184901b178455610bbe565b5f84815260208120601f198516915b828110156115285787850151825560209485019460019092019101611508565b508482101561154557868401515f19600387901b60f8161c191681555b50505050600190811b01905550565b634e487b7160e01b5f52605160045260245ffdfea264697066735822122027c4f32095d32af0d3e9eb0e758adc75c3a58cd04bc7e8b4c7ef1ff3b4f2d3a664736f6c634300081c0033a26469706673582212202122b64372fac6cbca29a4f2d4307a2899a23ffd95c73e046a350d22f05be4ce64736f6c634300081c0033",
    "linkReferences": {}
  },
  "methodIdentifiers": {
    "collectionToTokens(address,uint256)": "e12ade26",
    "collections(uint256)": "fdbda0ec",
    "createNewCollection(string,string)": "f1b5a427",
    "getAllCollections()": "6804a958",
    "getCollectionTokens(address)": "6bbdb812",
    "getUserCollectionAtIndex(address,uint256)": "3ed87794",
    "getUserCollections(address)": "9aa5ad8c",
    "isHTTPS(string)": "24eac919",
    "mintNFT(address,string)": "eacabe14",
    "userCollections(address,uint256)": "428a6171"
  },
  "id": 43
}