{
  "abi": [
    {
      "type": "function",
      "name": "collectionToTokens",
      "inputs": [
        {
          "name": "",
          "type": "address",
          "internalType": "address"
        },
        {
          "name": "",
          "type": "uint256",
          "internalType": "uint256"
        }
      ],
      "outputs": [
        {
          "name": "",
          "type": "uint256",
          "internalType": "uint256"
        }
      ],
      "stateMutability": "view"
    },
    {
      "type": "function",
      "name": "collections",
      "inputs": [
        {
          "name": "",
          "type": "uint256",
          "internalType": "uint256"
        }
      ],
      "outputs": [
        {
          "name": "name",
          "type": "string",
          "internalType": "string"
        },
        {
          "name": "symbol",
          "type": "string",
          "internalType": "string"
        },
        {
          "name": "description",
          "type": "string",
          "internalType": "string"
        },
        {
          "name": "image",
          "type": "string",
          "internalType": "string"
        },
        {
          "name": "contractAddress",
          "type": "address",
          "internalType": "address"
        },
        {
          "name": "creator",
          "type": "address",
          "internalType": "address"
        }
      ],
      "stateMutability": "view"
    },
    {
      "type": "function",
      "name": "createNewCollection",
      "inputs": [
        {
          "name": "name",
          "type": "string",
          "internalType": "string"
        },
        {
          "name": "symbol",
          "type": "string",
          "internalType": "string"
        }
      ],
      "outputs": [
        {
          "name": "",
          "type": "address",
          "internalType": "address"
        }
      ],
      "stateMutability": "nonpayable"
    },
    {
      "type": "function",
      "name": "getAllCollections",
      "inputs": [],
      "outputs": [
        {
          "name": "",
          "type": "tuple[]",
          "internalType": "struct NFTFactory.Collection[]",
          "components": [
            {
              "name": "name",
              "type": "string",
              "internalType": "string"
            },
            {
              "name": "symbol",
              "type": "string",
              "internalType": "string"
            },
            {
              "name": "description",
              "type": "string",
              "internalType": "string"
            },
            {
              "name": "image",
              "type": "string",
              "internalType": "string"
            },
            {
              "name": "contractAddress",
              "type": "address",
              "internalType": "address"
            },
            {
              "name": "creator",
              "type": "address",
              "internalType": "address"
            }
          ]
        }
      ],
      "stateMutability": "view"
    },
    {
      "type": "function",
      "name": "getCollectionTokens",
      "inputs": [
        {
          "name": "collectionAdd",
          "type": "address",
          "internalType": "address"
        }
      ],
      "outputs": [
        {
          "name": "",
          "type": "uint256[]",
          "internalType": "uint256[]"
        }
      ],
      "stateMutability": "view"
    },
    {
      "type": "function",
      "name": "getUserCollectionAtIndex",
      "inputs": [
        {
          "name": "userAddress",
          "type": "address",
          "internalType": "address"
        },
        {
          "name": "index",
          "type": "uint256",
          "internalType": "uint256"
        }
      ],
      "outputs": [
        {
          "name": "",
          "type": "tuple",
          "internalType": "struct NFTFactory.Collection",
          "components": [
            {
              "name": "name",
              "type": "string",
              "internalType": "string"
            },
            {
              "name": "symbol",
              "type": "string",
              "internalType": "string"
            },
            {
              "name": "description",
              "type": "string",
              "internalType": "string"
            },
            {
              "name": "image",
              "type": "string",
              "internalType": "string"
            },
            {
              "name": "contractAddress",
              "type": "address",
              "internalType": "address"
            },
            {
              "name": "creator",
              "type": "address",
              "internalType": "address"
            }
          ]
        }
      ],
      "stateMutability": "view"
    },
    {
      "type": "function",
      "name": "getUserCollections",
      "inputs": [
        {
          "name": "userAddress",
          "type": "address",
          "internalType": "address"
        }
      ],
      "outputs": [
        {
          "name": "",
          "type": "tuple[]",
          "internalType": "struct NFTFactory.Collection[]",
          "components": [
            {
              "name": "name",
              "type": "string",
              "internalType": "string"
            },
            {
              "name": "symbol",
              "type": "string",
              "internalType": "string"
            },
            {
              "name": "description",
              "type": "string",
              "internalType": "string"
            },
            {
              "name": "image",
              "type": "string",
              "internalType": "string"
            },
            {
              "name": "contractAddress",
              "type": "address",
              "internalType": "address"
            },
            {
              "name": "creator",
              "type": "address",
              "internalType": "address"
            }
          ]
        }
      ],
      "stateMutability": "view"
    },
    {
      "type": "function",
      "name": "isHTTPS",
      "inputs": [
        {
          "name": "_link",
          "type": "string",
          "internalType": "string"
        }
      ],
      "outputs": [
        {
          "name": "",
          "type": "bool",
          "internalType": "bool"
        }
      ],
      "stateMutability": "pure"
    },
    {
      "type": "function",
      "name": "mintNFT",
      "inputs": [
        {
          "name": "collectionAdd",
          "type": "address",
          "internalType": "address"
        },
        {
          "name": "tokenURI",
          "type": "string",
          "internalType": "string"
        }
      ],
      "outputs": [],
      "stateMutability": "nonpayable"
    },
    {
      "type": "function",
      "name": "userCollections",
      "inputs": [
        {
          "name": "",
          "type": "address",
          "internalType": "address"
        },
        {
          "name": "",
          "type": "uint256",
          "internalType": "uint256"
        }
      ],
      "outputs": [
        {
          "name": "name",
          "type": "string",
          "internalType": "string"
        },
        {
          "name": "symbol",
          "type": "string",
          "internalType": "string"
        },
        {
          "name": "description",
          "type": "string",
          "internalType": "string"
        },
        {
          "name": "image",
          "type": "string",
          "internalType": "string"
        },
        {
          "name": "contractAddress",
          "type": "address",
          "internalType": "address"
        },
        {
          "name": "creator",
          "type": "address",
          "internalType": "address"
        }
      ],
      "stateMutability": "view"
    },
    {
      "type": "event",
      "name": "CollectionCreated",
      "inputs": [
        {
          "name": "name",
          "type": "string",
          "indexed": false,
          "internalType": "string"
        },
        {
          "name": "description",
          "type": "string",
          "indexed": false,
          "internalType": "string"
        },
        {
          "name": "contractAddress",
          "type": "address",
          "indexed": false,
          "internalType": "address"
        },
        {
          "name": "creator",
          "type": "address",
          "indexed": false,
          "internalType": "address"
        }
      ],
      "anonymous": false
    },
    {
      "type": "event",
      "name": "NFTMinted",
      "inputs": [
        {
          "name": "collectionAddress",
          "type": "address",
          "indexed": false,
          "internalType": "address"
        },
        {
          "name": "minter",
          "type": "address",
          "indexed": false,
          "internalType": "address"
        },
        {
          "name": "tokenId",
          "type": "uint256",
          "indexed": false,
          "internalType": "uint256"
        }
      ],
      "anonymous": false
    }
  ],
  "bytecode": {
    "object": "0x6080604052348015600e575f5ffd5b5061342c8061001c5f395ff3fe608060405234801561000f575f5ffd5b506004361061009b575f3560e01c80639aa5ad8c116100635780639aa5ad8c14610141578063e12ade2614610154578063eacabe1414610175578063f1b5a4271461018a578063fdbda0ec146101b5575f5ffd5b806324eac9191461009f5780633ed87794146100c7578063428a6171146100e75780636804a9581461010c5780636bbdb81214610121575b5f5ffd5b6100b26100ad3660046115dc565b6101c8565b60405190151581526020015b60405180910390f35b6100da6100d536600461162d565b610365565b6040516100be9190611715565b6100fa6100f536600461162d565b6106b2565b6040516100be96959493929190611727565b610114610929565b6040516100be919061179a565b61013461012f3660046117fd565b610be9565b6040516100be9190611818565b61011461014f3660046117fd565b610c52565b61016761016236600461162d565b610f29565b6040519081526020016100be565b61018861018336600461185a565b610f54565b005b61019d6101983660046118a7565b611180565b6040516001600160a01b0390911681526020016100be565b6100fa6101c33660046118f6565b6113b5565b5f5f8290506008815110156101df57505f92915050565b805f815181106101f1576101f161190d565b6020910101516001600160f81b031916600d60fb1b1480156102385750806001815181106102215761022161190d565b6020910101516001600160f81b031916601d60fa1b145b80156102695750806002815181106102525761025261190d565b6020910101516001600160f81b031916601d60fa1b145b801561029a5750806003815181106102835761028361190d565b6020910101516001600160f81b031916600760fc1b145b80156102cb5750806004815181106102b4576102b461190d565b6020910101516001600160f81b031916607360f81b145b80156102fc5750806005815181106102e5576102e561190d565b6020910101516001600160f81b031916601d60f91b145b801561032d5750806006815181106103165761031661190d565b6020910101516001600160f81b031916602f60f81b145b801561035e5750806007815181106103475761034761190d565b6020910101516001600160f81b031916602f60f81b145b9392505050565b6103ae6040518060c00160405280606081526020016060815260200160608152602001606081526020015f6001600160a01b031681526020015f6001600160a01b031681525090565b6001600160a01b0383165f9081526001602052604090205482106104095760405162461bcd60e51b815260206004820152600d60248201526c092dcecc2d8d2c840d2dcc8caf609b1b60448201526064015b60405180910390fd5b6001600160a01b0383165f9081526001602052604090208054839081106104325761043261190d565b905f5260205f2090600602016040518060c00160405290815f8201805461045890611921565b80601f016020809104026020016040519081016040528092919081815260200182805461048490611921565b80156104cf5780601f106104a6576101008083540402835291602001916104cf565b820191905f5260205f20905b8154815290600101906020018083116104b257829003601f168201915b505050505081526020016001820180546104e890611921565b80601f016020809104026020016040519081016040528092919081815260200182805461051490611921565b801561055f5780601f106105365761010080835404028352916020019161055f565b820191905f5260205f20905b81548152906001019060200180831161054257829003601f168201915b5050505050815260200160028201805461057890611921565b80601f01602080910402602001604051908101604052809291908181526020018280546105a490611921565b80156105ef5780601f106105c6576101008083540402835291602001916105ef565b820191905f5260205f20905b8154815290600101906020018083116105d257829003601f168201915b5050505050815260200160038201805461060890611921565b80601f016020809104026020016040519081016040528092919081815260200182805461063490611921565b801561067f5780601f106106565761010080835404028352916020019161067f565b820191905f5260205f20905b81548152906001019060200180831161066257829003601f168201915b505050918352505060048201546001600160a01b0390811660208301526005909201549091166040909101529392505050565b6001602052815f5260405f2081815481106106cb575f80fd5b905f5260205f2090600602015f9150915050805f0180546106eb90611921565b80601f016020809104026020016040519081016040528092919081815260200182805461071790611921565b80156107625780601f1061073957610100808354040283529160200191610762565b820191905f5260205f20905b81548152906001019060200180831161074557829003601f168201915b50505050509080600101805461077790611921565b80601f01602080910402602001604051908101604052809291908181526020018280546107a390611921565b80156107ee5780601f106107c5576101008083540402835291602001916107ee565b820191905f5260205f20905b8154815290600101906020018083116107d157829003601f168201915b50505050509080600201805461080390611921565b80601f016020809104026020016040519081016040528092919081815260200182805461082f90611921565b801561087a5780601f106108515761010080835404028352916020019161087a565b820191905f5260205f20905b81548152906001019060200180831161085d57829003601f168201915b50505050509080600301805461088f90611921565b80601f01602080910402602001604051908101604052809291908181526020018280546108bb90611921565b80156109065780601f106108dd57610100808354040283529160200191610906565b820191905f5260205f20905b8154815290600101906020018083116108e957829003601f168201915b50505050600483015460059093015491926001600160a01b039081169216905086565b60605f805480602002602001604051908101604052809291908181526020015f905b82821015610be0578382905f5260205f2090600602016040518060c00160405290815f8201805461097b90611921565b80601f01602080910402602001604051908101604052809291908181526020018280546109a790611921565b80156109f25780601f106109c9576101008083540402835291602001916109f2565b820191905f5260205f20905b8154815290600101906020018083116109d557829003601f168201915b50505050508152602001600182018054610a0b90611921565b80601f0160208091040260200160405190810160405280929190818152602001828054610a3790611921565b8015610a825780601f10610a5957610100808354040283529160200191610a82565b820191905f5260205f20905b815481529060010190602001808311610a6557829003601f168201915b50505050508152602001600282018054610a9b90611921565b80601f0160208091040260200160405190810160405280929190818152602001828054610ac790611921565b8015610b125780601f10610ae957610100808354040283529160200191610b12565b820191905f5260205f20905b815481529060010190602001808311610af557829003601f168201915b50505050508152602001600382018054610b2b90611921565b80601f0160208091040260200160405190810160405280929190818152602001828054610b5790611921565b8015610ba25780601f10610b7957610100808354040283529160200191610ba2565b820191905f5260205f20905b815481529060010190602001808311610b8557829003601f168201915b505050918352505060048201546001600160a01b0390811660208084019190915260059093015416604090910152908252600192909201910161094b565b50505050905090565b6001600160a01b0381165f90815260026020908152604091829020805483518184028101840190945280845260609392830182828015610c4657602002820191905f5260205f20905b815481526020019060010190808311610c32575b50505050509050919050565b6001600160a01b0381165f908152600160209081526040808320805482518185028101850190935280835260609492939192909184015b82821015610f1e578382905f5260205f2090600602016040518060c00160405290815f82018054610cb990611921565b80601f0160208091040260200160405190810160405280929190818152602001828054610ce590611921565b8015610d305780601f10610d0757610100808354040283529160200191610d30565b820191905f5260205f20905b815481529060010190602001808311610d1357829003601f168201915b50505050508152602001600182018054610d4990611921565b80601f0160208091040260200160405190810160405280929190818152602001828054610d7590611921565b8015610dc05780601f10610d9757610100808354040283529160200191610dc0565b820191905f5260205f20905b815481529060010190602001808311610da357829003601f168201915b50505050508152602001600282018054610dd990611921565b80601f0160208091040260200160405190810160405280929190818152602001828054610e0590611921565b8015610e505780601f10610e2757610100808354040283529160200191610e50565b820191905f5260205f20905b815481529060010190602001808311610e3357829003601f168201915b50505050508152602001600382018054610e6990611921565b80601f0160208091040260200160405190810160405280929190818152602001828054610e9590611921565b8015610ee05780601f10610eb757610100808354040283529160200191610ee0565b820191905f5260205f20905b815481529060010190602001808311610ec357829003601f168201915b505050918352505060048201546001600160a01b03908116602080840191909152600590930154166040909101529082526001929092019101610c89565b505050509050919050565b6002602052815f5260405f208181548110610f42575f80fd5b905f5260205f20015f91509150505481565b5f815111610f985760405162461bcd60e51b8152602060048201526011602482015270496e76616c696420746f6b656e2055524960781b6044820152606401610400565b610fa1816113e2565b80610fb05750610fb0816101c8565b610ff05760405162461bcd60e51b8152602060048201526011602482015270496e76616c696420746f6b656e2055524960781b6044820152606401610400565b5f826001600160a01b0316638da5cb5b6040518163ffffffff1660e01b8152600401602060405180830381865afa15801561102d573d5f5f3e3d5ffd5b505050506040513d601f19601f820116820180604052508101906110519190611959565b9050336001600160a01b0382161461109c5760405162461bcd60e51b815260206004820152600e60248201526d139bdd08185d5d1a1bdc9a5e995960921b6044820152606401610400565b60405163d0def52160e01b81525f906001600160a01b0385169063d0def521906110cc9033908790600401611974565b6020604051808303815f875af11580156110e8573d5f5f3e3d5ffd5b505050506040513d601f19601f8201168201806040525081019061110c9190611997565b6001600160a01b0385165f8181526002602090815260408083208054600181018255908452928290209092018490558151928352339083015281018290529091507f2f7377f0470ca5f5d5bcb55c33ff5e20e0a2653933e0615e99f01e81640d0a929060600160405180910390a150505050565b5f5f83833360405161119190611530565b61119d939291906119ae565b604051809103905ff0801580156111b6573d5f5f3e3d5ffd5b506040805160c0810182528681526020808201879052825180820184525f80825283850191909152835191820190935282815260608201526001600160a01b03831660808201523360a0820152815460018101835591805280519293509182916006027f290decd9548b62a8d60345a988386fc84ba6bc95484008f6362f93160ef3e563019081906112489082611a37565b506020820151600182019061125d9082611a37565b50604082015160028201906112729082611a37565b50606082015160038201906112879082611a37565b5060808201516004820180546001600160a01b03199081166001600160a01b039384161790915560a090930151600590920180549093169116179055335f9081526001602081815260408320805492830181558352909120825183926006029091019081906112f69082611a37565b506020820151600182019061130b9082611a37565b50604082015160028201906113209082611a37565b50606082015160038201906113359082611a37565b5060808201516004820180546001600160a01b03199081166001600160a01b039384161790915560a0909301516005909201805490931691161790556040517fb39b6b10f6d49d6ba85a1ceebaa7c6684718aa39146f4ddfbccaf8899e76386a906113a590879085903390611af2565b60405180910390a1509392505050565b5f81815481106113c3575f80fd5b905f5260205f2090600602015f91509050805f0180546106eb90611921565b5f5f8290506007815110156113f957505f92915050565b805f8151811061140b5761140b61190d565b6020910101516001600160f81b031916606960f81b14801561145257508060018151811061143b5761143b61190d565b6020910101516001600160f81b031916600760fc1b145b801561148357508060028151811061146c5761146c61190d565b6020910101516001600160f81b031916603360f91b145b80156114b457508060038151811061149d5761149d61190d565b6020910101516001600160f81b031916607360f81b145b80156114e55750806004815181106114ce576114ce61190d565b6020910101516001600160f81b031916601d60f91b145b80156115165750806005815181106114ff576114ff61190d565b6020910101516001600160f81b031916602f60f81b145b801561035e5750806006815181106103475761034761190d565b6118bf80611b3883390190565b634e487b7160e01b5f52604160045260245ffd5b5f82601f830112611560575f5ffd5b813567ffffffffffffffff81111561157a5761157a61153d565b604051601f8201601f19908116603f0116810167ffffffffffffffff811182821017156115a9576115a961153d565b6040528181528382016020018510156115c0575f5ffd5b816020850160208301375f918101602001919091529392505050565b5f602082840312156115ec575f5ffd5b813567ffffffffffffffff811115611602575f5ffd5b61160e84828501611551565b949350505050565b6001600160a01b038116811461162a575f5ffd5b50565b5f5f6040838503121561163e575f5ffd5b823561164981611616565b946020939093013593505050565b5f81518084528060208401602086015e5f602082860101526020601f19601f83011685010191505092915050565b5f815160c0845261169960c0850182611657565b9050602083015184820360208601526116b28282611657565b915050604083015184820360408601526116cc8282611657565b915050606083015184820360608601526116e68282611657565b6080858101516001600160a01b039081169188019190915260a095860151169590940194909452509092915050565b602081525f61035e6020830184611685565b60c081525f61173960c0830189611657565b828103602084015261174b8189611657565b9050828103604084015261175f8188611657565b905082810360608401526117738187611657565b6001600160a01b0395861660808501529390941660a0909201919091525095945050505050565b5f602082016020835280845180835260408501915060408160051b8601019250602086015f5b828110156117f157603f198786030184526117dc858351611685565b945060209384019391909101906001016117c0565b50929695505050505050565b5f6020828403121561180d575f5ffd5b813561035e81611616565b602080825282518282018190525f918401906040840190835b8181101561184f578351835260209384019390920191600101611831565b509095945050505050565b5f5f6040838503121561186b575f5ffd5b823561187681611616565b9150602083013567ffffffffffffffff811115611891575f5ffd5b61189d85828601611551565b9150509250929050565b5f5f604083850312156118b8575f5ffd5b823567ffffffffffffffff8111156118ce575f5ffd5b6118da85828601611551565b925050602083013567ffffffffffffffff811115611891575f5ffd5b5f60208284031215611906575f5ffd5b5035919050565b634e487b7160e01b5f52603260045260245ffd5b600181811c9082168061193557607f821691505b60208210810361195357634e487b7160e01b5f52602260045260245ffd5b50919050565b5f60208284031215611969575f5ffd5b815161035e81611616565b6001600160a01b03831681526040602082018190525f9061160e90830184611657565b5f602082840312156119a7575f5ffd5b5051919050565b606081525f6119c06060830186611657565b82810360208401526119d28186611657565b91505060018060a01b0383166040830152949350505050565b601f821115611a3257805f5260205f20601f840160051c81016020851015611a105750805b601f840160051c820191505b81811015611a2f575f8155600101611a1c565b50505b505050565b815167ffffffffffffffff811115611a5157611a5161153d565b611a6581611a5f8454611921565b846119eb565b6020601f821160018114611a97575f8315611a805750848201515b5f19600385901b1c1916600184901b178455611a2f565b5f84815260208120601f198516915b82811015611ac65787850151825560209485019460019092019101611aa6565b5084821015611ae357868401515f19600387901b60f8161c191681555b50505050600190811b01905550565b608081525f611b046080830186611657565b8281036020808501919091525f82526001600160a01b03958616604085015293909416606090920191909152500191905056fe608060405234801561000f575f5ffd5b506040516118bf3803806118bf83398101604081905261002e9161018c565b8083835f61003c8382610295565b5060016100498282610295565b5050506001600160a01b03811661007957604051631e4fbdf760e01b81525f600482015260240160405180910390fd5b6100828161009e565b5050600980546001600160a01b031916331790555061034f9050565b600780546001600160a01b038381166001600160a01b0319831681179093556040519116919082907f8be0079c531659141344cd1fd0a4f28419497f9722a3daafe3b4186f6b6457e0905f90a35050565b634e487b7160e01b5f52604160045260245ffd5b5f82601f830112610112575f5ffd5b81516001600160401b0381111561012b5761012b6100ef565b604051601f8201601f19908116603f011681016001600160401b0381118282101715610159576101596100ef565b604052818152838201602001851015610170575f5ffd5b8160208501602083015e5f918101602001919091529392505050565b5f5f5f6060848603121561019e575f5ffd5b83516001600160401b038111156101b3575f5ffd5b6101bf86828701610103565b602086015190945090506001600160401b038111156101dc575f5ffd5b6101e886828701610103565b604086015190935090506001600160a01b0381168114610206575f5ffd5b809150509250925092565b600181811c9082168061022557607f821691505b60208210810361024357634e487b7160e01b5f52602260045260245ffd5b50919050565b601f82111561029057805f5260205f20601f840160051c8101602085101561026e5750805b601f840160051c820191505b8181101561028d575f815560010161027a565b50505b505050565b81516001600160401b038111156102ae576102ae6100ef565b6102c2816102bc8454610211565b84610249565b6020601f8211600181146102f4575f83156102dd5750848201515b5f19600385901b1c1916600184901b17845561028d565b5f84815260208120601f198516915b828110156103235787850151825560209485019460019092019101610303565b508482101561034057868401515f19600387901b60f8161c191681555b50505050600190811b01905550565b6115638061035c5f395ff3fe608060405234801561000f575f5ffd5b5060043610610132575f3560e01c80637ef758d4116100b4578063b88d4fde11610079578063b88d4fde14610272578063c45a015514610285578063c87b56dd14610298578063d0def521146102ab578063e985e9c5146102be578063f2fde38b146102d1575f5ffd5b80637ef758d41461022a5780638da5cb5b1461023d57806395d89b411461024e57806398bdf6f514610256578063a22cb4651461025f575f5ffd5b806342842e0e116100fa57806342842e0e146101c65780636352211e146101d957806363c7ae02146101ec57806370a0823114610201578063715018a614610222575f5ffd5b806301ffc9a71461013657806306fdde031461015e578063081812fc14610173578063095ea7b31461019e57806323b872dd146101b3575b5f5ffd5b61014961014436600461103c565b6102e4565b60405190151581526020015b60405180910390f35b61016661030e565b6040516101559190611085565b610186610181366004611097565b61039d565b6040516001600160a01b039091168152602001610155565b6101b16101ac3660046110c9565b6103c4565b005b6101b16101c13660046110f1565b6103d3565b6101b16101d43660046110f1565b610461565b6101866101e7366004611097565b610480565b6101f461048a565b604051610155919061112b565b61021461020f36600461116d565b6104df565b604051908152602001610155565b6101b1610524565b610214610238366004611097565b610537565b6007546001600160a01b0316610186565b610166610556565b61021460085481565b6101b161026d366004611186565b610565565b6101b161028036600461124a565b610570565b600954610186906001600160a01b031681565b6101666102a6366004611097565b610588565b6102146102b93660046112c1565b610693565b6101496102cc36600461131f565b610772565b6101b16102df36600461116d565b61079f565b5f6001600160e01b03198216632483248360e11b14806103085750610308826107dc565b92915050565b60605f805461031c90611350565b80601f016020809104026020016040519081016040528092919081815260200182805461034890611350565b80156103935780601f1061036a57610100808354040283529160200191610393565b820191905f5260205f20905b81548152906001019060200180831161037657829003601f168201915b5050505050905090565b5f6103a78261082b565b505f828152600460205260409020546001600160a01b0316610308565b6103cf828233610863565b5050565b6001600160a01b03821661040157604051633250574960e11b81525f60048201526024015b60405180910390fd5b5f61040d838333610870565b9050836001600160a01b0316816001600160a01b03161461045b576040516364283d7b60e01b81526001600160a01b03808616600483015260248201849052821660448201526064016103f8565b50505050565b61047b83838360405180602001604052805f815250610570565b505050565b5f6103088261082b565b6060600a80548060200260200160405190810160405280929190818152602001828054801561039357602002820191905f5260205f20905b8154815260200190600101908083116104c2575050505050905090565b5f6001600160a01b038216610509576040516322718ad960e21b81525f60048201526024016103f8565b506001600160a01b03165f9081526003602052604090205490565b61052c610962565b6105355f61098f565b565b600a8181548110610546575f80fd5b5f91825260209091200154905081565b60606001805461031c90611350565b6103cf3383836109e0565b61057b8484846103d3565b61045b3385858585610a7e565b60606105938261082b565b505f82815260066020526040812080546105ac90611350565b80601f01602080910402602001604051908101604052809291908181526020018280546105d890611350565b80156106235780601f106105fa57610100808354040283529160200191610623565b820191905f5260205f20905b81548152906001019060200180831161060657829003601f168201915b505050505090505f61063f60408051602081019091525f815290565b905080515f03610650575092915050565b81511561068257808260405160200161066a92919061139f565b60405160208183030381529060405292505050919050565b61068b84610ba6565b949350505050565b5f6106a66007546001600160a01b031690565b6001600160a01b0316336001600160a01b031614806106cf57506009546001600160a01b031633145b61070c5760405162461bcd60e51b815260206004820152600e60248201526d139bdd08185d5d1a1bdc9a5e995960921b60448201526064016103f8565b60088054905f61071b836113b3565b909155505060085461072d8482610c17565b6107378184610c30565b600a80546001810182555f919091527fc65a7bb8d6351c1cf70c95a316cc6a92839c986682d98bc35f958f4883f9d2a8018190559392505050565b6001600160a01b039182165f90815260056020908152604080832093909416825291909152205460ff1690565b6107a7610962565b6001600160a01b0381166107d057604051631e4fbdf760e01b81525f60048201526024016103f8565b6107d98161098f565b50565b5f6001600160e01b031982166380ac58cd60e01b148061080c57506001600160e01b03198216635b5e139f60e01b145b8061030857506301ffc9a760e01b6001600160e01b0319831614610308565b5f818152600260205260408120546001600160a01b03168061030857604051637e27328960e01b8152600481018490526024016103f8565b61047b8383836001610c7f565b5f828152600260205260408120546001600160a01b039081169083161561089c5761089c818486610d83565b6001600160a01b038116156108d6576108b75f855f5f610c7f565b6001600160a01b0381165f90815260036020526040902080545f190190555b6001600160a01b03851615610904576001600160a01b0385165f908152600360205260409020805460010190555b5f8481526002602052604080822080546001600160a01b0319166001600160a01b0389811691821790925591518793918516917fddf252ad1be2c89b69c2b068fc378daa952ba7f163c4a11628f55a4df523b3ef91a4949350505050565b6007546001600160a01b031633146105355760405163118cdaa760e01b81523360048201526024016103f8565b600780546001600160a01b038381166001600160a01b0319831681179093556040519116919082907f8be0079c531659141344cd1fd0a4f28419497f9722a3daafe3b4186f6b6457e0905f90a35050565b6001600160a01b038216610a1257604051630b61174360e31b81526001600160a01b03831660048201526024016103f8565b6001600160a01b038381165f81815260056020908152604080832094871680845294825291829020805460ff191686151590811790915591519182527f17307eab39ab6107e8899845ad3d59bd9653f200f220920489ca2b5937696c31910160405180910390a3505050565b6001600160a01b0383163b15610b9f57604051630a85bd0160e11b81526001600160a01b0384169063150b7a0290610ac09088908890879087906004016113d7565b6020604051808303815f875af1925050508015610afa575060408051601f3d908101601f19168201909252610af791810190611413565b60015b610b61573d808015610b27576040519150601f19603f3d011682016040523d82523d5f602084013e610b2c565b606091505b5080515f03610b5957604051633250574960e11b81526001600160a01b03851660048201526024016103f8565b805181602001fd5b6001600160e01b03198116630a85bd0160e11b14610b9d57604051633250574960e11b81526001600160a01b03851660048201526024016103f8565b505b5050505050565b6060610bb18261082b565b505f610bc760408051602081019091525f815290565b90505f815111610be55760405180602001604052805f815250610c10565b80610bef84610de7565b604051602001610c0092919061139f565b6040516020818303038152906040525b9392505050565b6103cf828260405180602001604052805f815250610e77565b5f828152600660205260409020610c478282611472565b506040518281527ff8e1a15aba9398e019f0b49df1a4fde98ee17ae345cb5f6b5e2c27f5033e8ce79060200160405180910390a15050565b8080610c9357506001600160a01b03821615155b15610d54575f610ca28461082b565b90506001600160a01b03831615801590610cce5750826001600160a01b0316816001600160a01b031614155b8015610ce15750610cdf8184610772565b155b15610d0a5760405163a9fbf51f60e01b81526001600160a01b03841660048201526024016103f8565b8115610d525783856001600160a01b0316826001600160a01b03167f8c5be1e5ebec7d5bd14f71427d1e84f3dd0314c0f7b2291e5b200ac8c7c3b92560405160405180910390a45b505b50505f90815260046020526040902080546001600160a01b0319166001600160a01b0392909216919091179055565b610d8e838383610e8e565b61047b576001600160a01b038316610dbc57604051637e27328960e01b8152600481018290526024016103f8565b60405163177e802f60e01b81526001600160a01b0383166004820152602481018290526044016103f8565b60605f610df383610eef565b60010190505f8167ffffffffffffffff811115610e1257610e126111bf565b6040519080825280601f01601f191660200182016040528015610e3c576020820181803683370190505b5090508181016020015b5f19016f181899199a1a9b1b9c1cb0b131b232b360811b600a86061a8153600a8504945084610e4657509392505050565b610e818383610fc6565b61047b335f858585610a7e565b5f6001600160a01b0383161580159061068b5750826001600160a01b0316846001600160a01b03161480610ec75750610ec78484610772565b8061068b5750505f908152600460205260409020546001600160a01b03908116911614919050565b5f8072184f03e93ff9f4daa797ed6e38ed64bf6a1f0160401b8310610f2d5772184f03e93ff9f4daa797ed6e38ed64bf6a1f0160401b830492506040015b6d04ee2d6d415b85acef81000000008310610f59576d04ee2d6d415b85acef8100000000830492506020015b662386f26fc100008310610f7757662386f26fc10000830492506010015b6305f5e1008310610f8f576305f5e100830492506008015b6127108310610fa357612710830492506004015b60648310610fb5576064830492506002015b600a83106103085760010192915050565b6001600160a01b038216610fef57604051633250574960e11b81525f60048201526024016103f8565b5f610ffb83835f610870565b90506001600160a01b0381161561047b576040516339e3563760e11b81525f60048201526024016103f8565b6001600160e01b0319811681146107d9575f5ffd5b5f6020828403121561104c575f5ffd5b8135610c1081611027565b5f81518084528060208401602086015e5f602082860101526020601f19601f83011685010191505092915050565b602081525f610c106020830184611057565b5f602082840312156110a7575f5ffd5b5035919050565b80356001600160a01b03811681146110c4575f5ffd5b919050565b5f5f604083850312156110da575f5ffd5b6110e3836110ae565b946020939093013593505050565b5f5f5f60608486031215611103575f5ffd5b61110c846110ae565b925061111a602085016110ae565b929592945050506040919091013590565b602080825282518282018190525f918401906040840190835b81811015611162578351835260209384019390920191600101611144565b509095945050505050565b5f6020828403121561117d575f5ffd5b610c10826110ae565b5f5f60408385031215611197575f5ffd5b6111a0836110ae565b9150602083013580151581146111b4575f5ffd5b809150509250929050565b634e487b7160e01b5f52604160045260245ffd5b5f5f67ffffffffffffffff8411156111ed576111ed6111bf565b50604051601f19601f85018116603f0116810181811067ffffffffffffffff8211171561121c5761121c6111bf565b604052838152905080828401851015611233575f5ffd5b838360208301375f60208583010152509392505050565b5f5f5f5f6080858703121561125d575f5ffd5b611266856110ae565b9350611274602086016110ae565b925060408501359150606085013567ffffffffffffffff811115611296575f5ffd5b8501601f810187136112a6575f5ffd5b6112b5878235602084016111d3565b91505092959194509250565b5f5f604083850312156112d2575f5ffd5b6112db836110ae565b9150602083013567ffffffffffffffff8111156112f6575f5ffd5b8301601f81018513611306575f5ffd5b611315858235602084016111d3565b9150509250929050565b5f5f60408385031215611330575f5ffd5b611339836110ae565b9150611347602084016110ae565b90509250929050565b600181811c9082168061136457607f821691505b60208210810361138257634e487b7160e01b5f52602260045260245ffd5b50919050565b5f81518060208401855e5f93019283525090919050565b5f61068b6113ad8386611388565b84611388565b5f600182016113d057634e487b7160e01b5f52601160045260245ffd5b5060010190565b6001600160a01b03858116825284166020820152604081018390526080606082018190525f9061140990830184611057565b9695505050505050565b5f60208284031215611423575f5ffd5b8151610c1081611027565b601f82111561047b57805f5260205f20601f840160051c810160208510156114535750805b601f840160051c820191505b81811015610b9f575f815560010161145f565b815167ffffffffffffffff81111561148c5761148c6111bf565b6114a08161149a8454611350565b8461142e565b6020601f8211600181146114d2575f83156114bb5750848201515b5f19600385901b1c1916600184901b178455610b9f565b5f84815260208120601f198516915b8281101561150157878501518255602094850194600190920191016114e1565b508482101561151e57868401515f19600387901b60f8161c191681555b50505050600190811b0190555056fea26469706673582212209af7017da998fa9ed80f185ca4a6a74fb30a21cbefb1e66d1b9db77d82c1e02264736f6c634300081c0033a2646970667358221220227f8fd343e7d43d108e8cfd7fddfbe1aacc450a4912be86df7202531fefd3c464736f6c634300081c0033",
    "linkReferences": {}
  },
  "methodIdentifiers": {
    "collectionToTokens(address,uint256)": "e12ade26",
    "collections(uint256)": "fdbda0ec",
    "createNewCollection(string,string)": "f1b5a427",
    "getAllCollections()": "6804a958",
    "getCollectionTokens(address)": "6bbdb812",
    "getUserCollectionAtIndex(address,uint256)": "3ed87794",
    "getUserCollections(address)": "9aa5ad8c",
    "isHTTPS(string)": "24eac919",
    "mintNFT(address,string)": "eacabe14",
    "userCollections(address,uint256)": "428a6171"
  },
  "id": 41
}