{
  "abi": [
    {
      "type": "function",
      "name": "collectionToTokens",
      "inputs": [
        {
          "name": "",
          "type": "address",
          "internalType": "address"
        },
        {
          "name": "",
          "type": "uint256",
          "internalType": "uint256"
        }
      ],
      "outputs": [
        {
          "name": "",
          "type": "uint256",
          "internalType": "uint256"
        }
      ],
      "stateMutability": "view"
    },
    {
      "type": "function",
      "name": "collections",
      "inputs": [
        {
          "name": "",
          "type": "uint256",
          "internalType": "uint256"
        }
      ],
      "outputs": [
        {
          "name": "name",
          "type": "string",
          "internalType": "string"
        },
        {
          "name": "symbol",
          "type": "string",
          "internalType": "string"
        },
        {
          "name": "metadataURI",
          "type": "string",
          "internalType": "string"
        },
        {
          "name": "contractAddress",
          "type": "address",
          "internalType": "address"
        },
        {
          "name": "creator",
          "type": "address",
          "internalType": "address"
        }
      ],
      "stateMutability": "view"
    },
    {
      "type": "function",
      "name": "createNewCollection",
      "inputs": [
        {
          "name": "name",
          "type": "string",
          "internalType": "string"
        },
        {
          "name": "symbol",
          "type": "string",
          "internalType": "string"
        },
        {
          "name": "metadataURI",
          "type": "string",
          "internalType": "string"
        }
      ],
      "outputs": [
        {
          "name": "",
          "type": "address",
          "internalType": "address"
        }
      ],
      "stateMutability": "nonpayable"
    },
    {
      "type": "function",
      "name": "getAllCollections",
      "inputs": [],
      "outputs": [
        {
          "name": "",
          "type": "tuple[]",
          "internalType": "struct NFTFactory.Collection[]",
          "components": [
            {
              "name": "name",
              "type": "string",
              "internalType": "string"
            },
            {
              "name": "symbol",
              "type": "string",
              "internalType": "string"
            },
            {
              "name": "metadataURI",
              "type": "string",
              "internalType": "string"
            },
            {
              "name": "contractAddress",
              "type": "address",
              "internalType": "address"
            },
            {
              "name": "creator",
              "type": "address",
              "internalType": "address"
            }
          ]
        }
      ],
      "stateMutability": "view"
    },
    {
      "type": "function",
      "name": "getCollectionTokens",
      "inputs": [
        {
          "name": "collectionAdd",
          "type": "address",
          "internalType": "address"
        }
      ],
      "outputs": [
        {
          "name": "",
          "type": "uint256[]",
          "internalType": "uint256[]"
        }
      ],
      "stateMutability": "view"
    },
    {
      "type": "function",
      "name": "getUserCollectionAtIndex",
      "inputs": [
        {
          "name": "userAddress",
          "type": "address",
          "internalType": "address"
        },
        {
          "name": "index",
          "type": "uint256",
          "internalType": "uint256"
        }
      ],
      "outputs": [
        {
          "name": "",
          "type": "tuple",
          "internalType": "struct NFTFactory.Collection",
          "components": [
            {
              "name": "name",
              "type": "string",
              "internalType": "string"
            },
            {
              "name": "symbol",
              "type": "string",
              "internalType": "string"
            },
            {
              "name": "metadataURI",
              "type": "string",
              "internalType": "string"
            },
            {
              "name": "contractAddress",
              "type": "address",
              "internalType": "address"
            },
            {
              "name": "creator",
              "type": "address",
              "internalType": "address"
            }
          ]
        }
      ],
      "stateMutability": "view"
    },
    {
      "type": "function",
      "name": "getUserCollections",
      "inputs": [
        {
          "name": "userAddress",
          "type": "address",
          "internalType": "address"
        }
      ],
      "outputs": [
        {
          "name": "",
          "type": "tuple[]",
          "internalType": "struct NFTFactory.Collection[]",
          "components": [
            {
              "name": "name",
              "type": "string",
              "internalType": "string"
            },
            {
              "name": "symbol",
              "type": "string",
              "internalType": "string"
            },
            {
              "name": "metadataURI",
              "type": "string",
              "internalType": "string"
            },
            {
              "name": "contractAddress",
              "type": "address",
              "internalType": "address"
            },
            {
              "name": "creator",
              "type": "address",
              "internalType": "address"
            }
          ]
        }
      ],
      "stateMutability": "view"
    },
    {
      "type": "function",
      "name": "isHTTPS",
      "inputs": [
        {
          "name": "_link",
          "type": "string",
          "internalType": "string"
        }
      ],
      "outputs": [
        {
          "name": "",
          "type": "bool",
          "internalType": "bool"
        }
      ],
      "stateMutability": "pure"
    },
    {
      "type": "function",
      "name": "mintNFT",
      "inputs": [
        {
          "name": "collectionAdd",
          "type": "address",
          "internalType": "address"
        },
        {
          "name": "tokenURI",
          "type": "string",
          "internalType": "string"
        }
      ],
      "outputs": [
        {
          "name": "",
          "type": "uint256",
          "internalType": "uint256"
        }
      ],
      "stateMutability": "nonpayable"
    },
    {
      "type": "function",
      "name": "userCollections",
      "inputs": [
        {
          "name": "",
          "type": "address",
          "internalType": "address"
        },
        {
          "name": "",
          "type": "uint256",
          "internalType": "uint256"
        }
      ],
      "outputs": [
        {
          "name": "name",
          "type": "string",
          "internalType": "string"
        },
        {
          "name": "symbol",
          "type": "string",
          "internalType": "string"
        },
        {
          "name": "metadataURI",
          "type": "string",
          "internalType": "string"
        },
        {
          "name": "contractAddress",
          "type": "address",
          "internalType": "address"
        },
        {
          "name": "creator",
          "type": "address",
          "internalType": "address"
        }
      ],
      "stateMutability": "view"
    },
    {
      "type": "event",
      "name": "CollectionCreated",
      "inputs": [
        {
          "name": "name",
          "type": "string",
          "indexed": false,
          "internalType": "string"
        },
        {
          "name": "contractAddress",
          "type": "address",
          "indexed": false,
          "internalType": "address"
        },
        {
          "name": "creator",
          "type": "address",
          "indexed": false,
          "internalType": "address"
        }
      ],
      "anonymous": false
    },
    {
      "type": "event",
      "name": "NFTMinted",
      "inputs": [
        {
          "name": "collectionAddress",
          "type": "address",
          "indexed": false,
          "internalType": "address"
        },
        {
          "name": "minter",
          "type": "address",
          "indexed": false,
          "internalType": "address"
        },
        {
          "name": "tokenId",
          "type": "uint256",
          "indexed": false,
          "internalType": "uint256"
        }
      ],
      "anonymous": false
    }
  ],
  "bytecode": {
    "object": "0x6080604052348015600e575f5ffd5b5061339e8061001c5f395ff3fe608060405234801561000f575f5ffd5b506004361061009b575f3560e01c80636eda758e116100635780636eda758e146101405780639aa5ad8c1461016b578063e12ade261461017e578063eacabe141461019f578063fdbda0ec146101b2575f5ffd5b806324eac9191461009f5780633ed87794146100c7578063428a6171146100e75780636804a9581461010b5780636bbdb81214610120575b5f5ffd5b6100b26100ad36600461139d565b6101c5565b60405190151581526020015b60405180910390f35b6100da6100d53660046113ee565b610362565b6040516100be91906114bc565b6100fa6100f53660046113ee565b61061e565b6040516100be9594939291906114ce565b610113610809565b6040516100be919061152c565b61013361012e36600461158f565b610a39565b6040516100be91906115aa565b61015361014e3660046115ec565b610aa2565b6040516001600160a01b0390911681526020016100be565b61011361017936600461158f565b610cd3565b61019161018c3660046113ee565b610f1a565b6040519081526020016100be565b6101916101ad36600461167a565b610f45565b6100fa6101c03660046116c7565b611176565b5f5f8290506008815110156101dc57505f92915050565b805f815181106101ee576101ee6116de565b6020910101516001600160f81b031916600d60fb1b14801561023557508060018151811061021e5761021e6116de565b6020910101516001600160f81b031916601d60fa1b145b801561026657508060028151811061024f5761024f6116de565b6020910101516001600160f81b031916601d60fa1b145b8015610297575080600381518110610280576102806116de565b6020910101516001600160f81b031916600760fc1b145b80156102c85750806004815181106102b1576102b16116de565b6020910101516001600160f81b031916607360f81b145b80156102f95750806005815181106102e2576102e26116de565b6020910101516001600160f81b031916601d60f91b145b801561032a575080600681518110610313576103136116de565b6020910101516001600160f81b031916602f60f81b145b801561035b575080600781518110610344576103446116de565b6020910101516001600160f81b031916602f60f81b145b9392505050565b6103a46040518060a001604052806060815260200160608152602001606081526020015f6001600160a01b031681526020015f6001600160a01b031681525090565b6001600160a01b0383165f908152600160205260409020548290849082106104035760405162461bcd60e51b815260206004820152600d60248201526c092dcecc2d8d2c840d2dcc8caf609b1b60448201526064015b60405180910390fd5b6001600160a01b0385165f90815260016020526040902080548590811061042c5761042c6116de565b905f5260205f2090600502016040518060a00160405290815f82018054610452906116f2565b80601f016020809104026020016040519081016040528092919081815260200182805461047e906116f2565b80156104c95780601f106104a0576101008083540402835291602001916104c9565b820191905f5260205f20905b8154815290600101906020018083116104ac57829003601f168201915b505050505081526020016001820180546104e2906116f2565b80601f016020809104026020016040519081016040528092919081815260200182805461050e906116f2565b80156105595780601f1061053057610100808354040283529160200191610559565b820191905f5260205f20905b81548152906001019060200180831161053c57829003601f168201915b50505050508152602001600282018054610572906116f2565b80601f016020809104026020016040519081016040528092919081815260200182805461059e906116f2565b80156105e95780601f106105c0576101008083540402835291602001916105e9565b820191905f5260205f20905b8154815290600101906020018083116105cc57829003601f168201915b505050918352505060038201546001600160a01b03908116602083015260049092015490911660409091015295945050505050565b6001602052815f5260405f208181548110610637575f80fd5b905f5260205f2090600502015f9150915050805f018054610657906116f2565b80601f0160208091040260200160405190810160405280929190818152602001828054610683906116f2565b80156106ce5780601f106106a5576101008083540402835291602001916106ce565b820191905f5260205f20905b8154815290600101906020018083116106b157829003601f168201915b5050505050908060010180546106e3906116f2565b80601f016020809104026020016040519081016040528092919081815260200182805461070f906116f2565b801561075a5780601f106107315761010080835404028352916020019161075a565b820191905f5260205f20905b81548152906001019060200180831161073d57829003601f168201915b50505050509080600201805461076f906116f2565b80601f016020809104026020016040519081016040528092919081815260200182805461079b906116f2565b80156107e65780601f106107bd576101008083540402835291602001916107e6565b820191905f5260205f20905b8154815290600101906020018083116107c957829003601f168201915b50505050600383015460049093015491926001600160a01b039081169216905085565b60605f805480602002602001604051908101604052809291908181526020015f905b82821015610a30578382905f5260205f2090600502016040518060a00160405290815f8201805461085b906116f2565b80601f0160208091040260200160405190810160405280929190818152602001828054610887906116f2565b80156108d25780601f106108a9576101008083540402835291602001916108d2565b820191905f5260205f20905b8154815290600101906020018083116108b557829003601f168201915b505050505081526020016001820180546108eb906116f2565b80601f0160208091040260200160405190810160405280929190818152602001828054610917906116f2565b80156109625780601f1061093957610100808354040283529160200191610962565b820191905f5260205f20905b81548152906001019060200180831161094557829003601f168201915b5050505050815260200160028201805461097b906116f2565b80601f01602080910402602001604051908101604052809291908181526020018280546109a7906116f2565b80156109f25780601f106109c9576101008083540402835291602001916109f2565b820191905f5260205f20905b8154815290600101906020018083116109d557829003601f168201915b505050918352505060038201546001600160a01b0390811660208084019190915260049093015416604090910152908252600192909201910161082b565b50505050905090565b6001600160a01b0381165f90815260026020908152604091829020805483518184028101840190945280845260609392830182828015610a9657602002820191905f5260205f20905b815481526020019060010190808311610a82575b50505050509050919050565b5f5f845111610ae35760405162461bcd60e51b815260206004820152600d60248201526c13985b59481c995c5d5a5c9959609a1b60448201526064016103fa565b5f848433604051610af3906112f1565b610aff9392919061172a565b604051809103905ff080158015610b18573d5f5f3e3d5ffd5b506040805160a081018252878152602081018790529081018590526001600160a01b03821660608201523360808201525f80546001810182559080528151929350909182916005027f290decd9548b62a8d60345a988386fc84ba6bc95484008f6362f93160ef3e56301908190610b8f90826117b3565b5060208201516001820190610ba490826117b3565b5060408201516002820190610bb990826117b3565b5060608201516003820180546001600160a01b03199081166001600160a01b0393841617909155608090930151600490920180549093169116179055335f908152600160208181526040832080549283018155835290912082518392600502909101908190610c2890826117b3565b5060208201516001820190610c3d90826117b3565b5060408201516002820190610c5290826117b3565b5060608201516003820180546001600160a01b03199081166001600160a01b03938416179091556080909301516004909201805490931691161790556040517f856956588802736eec469a7cd2bedd3c1e10dbe157023c38fbbf30115dffb69e90610cc29088908590339061186e565b60405180910390a150949350505050565b6001600160a01b0381165f908152600160209081526040808320805482518185028101850190935280835260609492939192909184015b82821015610f0f578382905f5260205f2090600502016040518060a00160405290815f82018054610d3a906116f2565b80601f0160208091040260200160405190810160405280929190818152602001828054610d66906116f2565b8015610db15780601f10610d8857610100808354040283529160200191610db1565b820191905f5260205f20905b815481529060010190602001808311610d9457829003601f168201915b50505050508152602001600182018054610dca906116f2565b80601f0160208091040260200160405190810160405280929190818152602001828054610df6906116f2565b8015610e415780601f10610e1857610100808354040283529160200191610e41565b820191905f5260205f20905b815481529060010190602001808311610e2457829003601f168201915b50505050508152602001600282018054610e5a906116f2565b80601f0160208091040260200160405190810160405280929190818152602001828054610e86906116f2565b8015610ed15780601f10610ea857610100808354040283529160200191610ed1565b820191905f5260205f20905b815481529060010190602001808311610eb457829003601f168201915b505050918352505060038201546001600160a01b03908116602080840191909152600490930154166040909101529082526001929092019101610d0a565b505050509050919050565b6002602052815f5260405f208181548110610f33575f80fd5b905f5260205f20015f91509150505481565b5f815f815111610f8b5760405162461bcd60e51b8152602060048201526011602482015270496e76616c696420746f6b656e2055524960781b60448201526064016103fa565b610f94836111a3565b80610fa35750610fa3836101c5565b610fe35760405162461bcd60e51b8152602060048201526011602482015270496e76616c696420746f6b656e2055524960781b60448201526064016103fa565b5f846001600160a01b0316638da5cb5b6040518163ffffffff1660e01b8152600401602060405180830381865afa158015611020573d5f5f3e3d5ffd5b505050506040513d601f19601f8201168201806040525081019061104491906118a0565b9050336001600160a01b0382161461108f5760405162461bcd60e51b815260206004820152600e60248201526d139bdd08185d5d1a1bdc9a5e995960921b60448201526064016103fa565b60405163d0def52160e01b81525f906001600160a01b0387169063d0def521906110bf90339089906004016118bb565b6020604051808303815f875af11580156110db573d5f5f3e3d5ffd5b505050506040513d601f19601f820116820180604052508101906110ff91906118de565b6001600160a01b0387165f8181526002602090815260408083208054600181018255908452928290209092018490558151928352339083015281018290529091507f2f7377f0470ca5f5d5bcb55c33ff5e20e0a2653933e0615e99f01e81640d0a929060600160405180910390a195945050505050565b5f8181548110611184575f80fd5b905f5260205f2090600502015f91509050805f018054610657906116f2565b5f5f8290506007815110156111ba57505f92915050565b805f815181106111cc576111cc6116de565b6020910101516001600160f81b031916606960f81b1480156112135750806001815181106111fc576111fc6116de565b6020910101516001600160f81b031916600760fc1b145b801561124457508060028151811061122d5761122d6116de565b6020910101516001600160f81b031916603360f91b145b801561127557508060038151811061125e5761125e6116de565b6020910101516001600160f81b031916607360f81b145b80156112a657508060048151811061128f5761128f6116de565b6020910101516001600160f81b031916601d60f91b145b80156112d75750806005815181106112c0576112c06116de565b6020910101516001600160f81b031916602f60f81b145b801561035b575080600681518110610344576103446116de565b611a73806118f683390190565b634e487b7160e01b5f52604160045260245ffd5b5f82601f830112611321575f5ffd5b813567ffffffffffffffff81111561133b5761133b6112fe565b604051601f8201601f19908116603f0116810167ffffffffffffffff8111828210171561136a5761136a6112fe565b604052818152838201602001851015611381575f5ffd5b816020850160208301375f918101602001919091529392505050565b5f602082840312156113ad575f5ffd5b813567ffffffffffffffff8111156113c3575f5ffd5b6113cf84828501611312565b949350505050565b6001600160a01b03811681146113eb575f5ffd5b50565b5f5f604083850312156113ff575f5ffd5b823561140a816113d7565b946020939093013593505050565b5f81518084528060208401602086015e5f602082860101526020601f19601f83011685010191505092915050565b5f815160a0845261145a60a0850182611418565b9050602083015184820360208601526114738282611418565b9150506040830151848203604086015261148d8282611418565b6060858101516001600160a01b0390811691880191909152608095860151169490950193909352509192915050565b602081525f61035b6020830184611446565b60a081525f6114e060a0830188611418565b82810360208401526114f28188611418565b905082810360408401526115068187611418565b6001600160a01b0395861660608501529390941660809092019190915250949350505050565b5f602082016020835280845180835260408501915060408160051b8601019250602086015f5b8281101561158357603f1987860301845261156e858351611446565b94506020938401939190910190600101611552565b50929695505050505050565b5f6020828403121561159f575f5ffd5b813561035b816113d7565b602080825282518282018190525f918401906040840190835b818110156115e15783518352602093840193909201916001016115c3565b509095945050505050565b5f5f5f606084860312156115fe575f5ffd5b833567ffffffffffffffff811115611614575f5ffd5b61162086828701611312565b935050602084013567ffffffffffffffff81111561163c575f5ffd5b61164886828701611312565b925050604084013567ffffffffffffffff811115611664575f5ffd5b61167086828701611312565b9150509250925092565b5f5f6040838503121561168b575f5ffd5b8235611696816113d7565b9150602083013567ffffffffffffffff8111156116b1575f5ffd5b6116bd85828601611312565b9150509250929050565b5f602082840312156116d7575f5ffd5b5035919050565b634e487b7160e01b5f52603260045260245ffd5b600181811c9082168061170657607f821691505b60208210810361172457634e487b7160e01b5f52602260045260245ffd5b50919050565b606081525f61173c6060830186611418565b828103602084015261174e8186611418565b91505060018060a01b0383166040830152949350505050565b601f8211156117ae57805f5260205f20601f840160051c8101602085101561178c5750805b601f840160051c820191505b818110156117ab575f8155600101611798565b50505b505050565b815167ffffffffffffffff8111156117cd576117cd6112fe565b6117e1816117db84546116f2565b84611767565b6020601f821160018114611813575f83156117fc5750848201515b5f19600385901b1c1916600184901b1784556117ab565b5f84815260208120601f198516915b828110156118425787850151825560209485019460019092019101611822565b508482101561185f57868401515f19600387901b60f8161c191681555b50505050600190811b01905550565b606081525f6118806060830186611418565b6001600160a01b0394851660208401529290931660409091015292915050565b5f602082840312156118b0575f5ffd5b815161035b816113d7565b6001600160a01b03831681526040602082018190525f906113cf90830184611418565b5f602082840312156118ee575f5ffd5b505191905056fe608060405234801561000f575f5ffd5b50604051611a73380380611a7383398101604081905261002e916102be565b8083835f61003c83826103c7565b50600161004982826103c7565b5050506001600160a01b03811661007a57604051631e4fbdf760e01b81525f60048201526024015b60405180910390fd5b6100838161014e565b506001600160a01b0381166100da5760405162461bcd60e51b815260206004820152601560248201527f496e76616c6964206f776e6572206164647265737300000000000000000000006044820152606401610071565b60408051808201909152600b81526a36b9b39739b2b73232b91d60a91b6020820152610106903361019f565b60408051808201909152600d81526c37bbb732b9103830b9b9b2b21d60991b6020820152610134908261019f565b5050600980546001600160a01b03191633179055506104c8565b600780546001600160a01b038381166001600160a01b0319831681179093556040519116919082907f8be0079c531659141344cd1fd0a4f28419497f9722a3daafe3b4186f6b6457e0905f90a35050565b6101e882826040516024016101b5929190610481565b60408051601f198184030181529190526020810180516001600160e01b0390811663319af33360e01b179091526101ec16565b5050565b6101ff8161020260201b6107dc1760201c565b50565b5f6a636f6e736f6c652e6c6f6790505f5f835160208501845afa505050565b634e487b7160e01b5f52604160045260245ffd5b5f82601f830112610244575f5ffd5b81516001600160401b0381111561025d5761025d610221565b604051601f8201601f19908116603f011681016001600160401b038111828210171561028b5761028b610221565b6040528181528382016020018510156102a2575f5ffd5b8160208501602083015e5f918101602001919091529392505050565b5f5f5f606084860312156102d0575f5ffd5b83516001600160401b038111156102e5575f5ffd5b6102f186828701610235565b602086015190945090506001600160401b0381111561030e575f5ffd5b61031a86828701610235565b604086015190935090506001600160a01b0381168114610338575f5ffd5b809150509250925092565b600181811c9082168061035757607f821691505b60208210810361037557634e487b7160e01b5f52602260045260245ffd5b50919050565b601f8211156103c257805f5260205f20601f840160051c810160208510156103a05750805b601f840160051c820191505b818110156103bf575f81556001016103ac565b50505b505050565b81516001600160401b038111156103e0576103e0610221565b6103f4816103ee8454610343565b8461037b565b6020601f821160018114610426575f831561040f5750848201515b5f19600385901b1c1916600184901b1784556103bf565b5f84815260208120601f198516915b828110156104555787850151825560209485019460019092019101610435565b508482101561047257868401515f19600387901b60f8161c191681555b50505050600190811b01905550565b604081525f83518060408401528060208601606085015e5f60608285018101919091526001600160a01b03949094166020840152601f01601f191690910190910192915050565b61159e806104d55f395ff3fe608060405234801561000f575f5ffd5b5060043610610132575f3560e01c80637ef758d4116100b4578063b88d4fde11610079578063b88d4fde14610272578063c45a015514610285578063c87b56dd14610298578063d0def521146102ab578063e985e9c5146102be578063f2fde38b146102d1575f5ffd5b80637ef758d41461022a5780638da5cb5b1461023d57806395d89b411461024e57806398bdf6f514610256578063a22cb4651461025f575f5ffd5b806342842e0e116100fa57806342842e0e146101c65780636352211e146101d957806363c7ae02146101ec57806370a0823114610201578063715018a614610222575f5ffd5b806301ffc9a71461013657806306fdde031461015e578063081812fc14610173578063095ea7b31461019e57806323b872dd146101b3575b5f5ffd5b610149610144366004611063565b6102e4565b60405190151581526020015b60405180910390f35b61016661030e565b60405161015591906110ac565b6101866101813660046110be565b61039d565b6040516001600160a01b039091168152602001610155565b6101b16101ac3660046110f0565b6103c4565b005b6101b16101c1366004611118565b6103d3565b6101b16101d4366004611118565b610461565b6101866101e73660046110be565b610480565b6101f461048a565b6040516101559190611152565b61021461020f366004611194565b6104df565b604051908152602001610155565b6101b1610524565b6102146102383660046110be565b610537565b6007546001600160a01b0316610186565b610166610556565b61021460085481565b6101b161026d3660046111ad565b610565565b6101b1610280366004611271565b610570565b600954610186906001600160a01b031681565b6101666102a63660046110be565b610588565b6102146102b93660046112e8565b610693565b6101496102cc366004611346565b610772565b6101b16102df366004611194565b61079f565b5f6001600160e01b03198216632483248360e11b14806103085750610308826107fb565b92915050565b60605f805461031c90611377565b80601f016020809104026020016040519081016040528092919081815260200182805461034890611377565b80156103935780601f1061036a57610100808354040283529160200191610393565b820191905f5260205f20905b81548152906001019060200180831161037657829003601f168201915b5050505050905090565b5f6103a78261084a565b505f828152600460205260409020546001600160a01b0316610308565b6103cf828233610882565b5050565b6001600160a01b03821661040157604051633250574960e11b81525f60048201526024015b60405180910390fd5b5f61040d83833361088f565b9050836001600160a01b0316816001600160a01b03161461045b576040516364283d7b60e01b81526001600160a01b03808616600483015260248201849052821660448201526064016103f8565b50505050565b61047b83838360405180602001604052805f815250610570565b505050565b5f6103088261084a565b6060600a80548060200260200160405190810160405280929190818152602001828054801561039357602002820191905f5260205f20905b8154815260200190600101908083116104c2575050505050905090565b5f6001600160a01b038216610509576040516322718ad960e21b81525f60048201526024016103f8565b506001600160a01b03165f9081526003602052604090205490565b61052c610981565b6105355f6109ae565b565b600a8181548110610546575f80fd5b5f91825260209091200154905081565b60606001805461031c90611377565b6103cf3383836109ff565b61057b8484846103d3565b61045b3385858585610a9d565b60606105938261084a565b505f82815260066020526040812080546105ac90611377565b80601f01602080910402602001604051908101604052809291908181526020018280546105d890611377565b80156106235780601f106105fa57610100808354040283529160200191610623565b820191905f5260205f20905b81548152906001019060200180831161060657829003601f168201915b505050505090505f61063f60408051602081019091525f815290565b905080515f03610650575092915050565b81511561068257808260405160200161066a9291906113c6565b60405160208183030381529060405292505050919050565b61068b84610bc5565b949350505050565b5f6106a66007546001600160a01b031690565b6001600160a01b0316336001600160a01b031614806106cf57506009546001600160a01b031633145b61070c5760405162461bcd60e51b815260206004820152600e60248201526d139bdd08185d5d1a1bdc9a5e995960921b60448201526064016103f8565b60088054905f61071b836113da565b909155505060085461072d8482610c36565b6107378184610c4f565b600a80546001810182555f919091527fc65a7bb8d6351c1cf70c95a316cc6a92839c986682d98bc35f958f4883f9d2a8018190559392505050565b6001600160a01b039182165f90815260056020908152604080832093909416825291909152205460ff1690565b6107a7610981565b6001600160a01b0381166107d057604051631e4fbdf760e01b81525f60048201526024016103f8565b6107d9816109ae565b50565b5f6a636f6e736f6c652e6c6f6790505f5f835160208501845afa505050565b5f6001600160e01b031982166380ac58cd60e01b148061082b57506001600160e01b03198216635b5e139f60e01b145b8061030857506301ffc9a760e01b6001600160e01b0319831614610308565b5f818152600260205260408120546001600160a01b03168061030857604051637e27328960e01b8152600481018490526024016103f8565b61047b8383836001610c9e565b5f828152600260205260408120546001600160a01b03908116908316156108bb576108bb818486610da2565b6001600160a01b038116156108f5576108d65f855f5f610c9e565b6001600160a01b0381165f90815260036020526040902080545f190190555b6001600160a01b03851615610923576001600160a01b0385165f908152600360205260409020805460010190555b5f8481526002602052604080822080546001600160a01b0319166001600160a01b0389811691821790925591518793918516917fddf252ad1be2c89b69c2b068fc378daa952ba7f163c4a11628f55a4df523b3ef91a4949350505050565b6007546001600160a01b031633146105355760405163118cdaa760e01b81523360048201526024016103f8565b600780546001600160a01b038381166001600160a01b0319831681179093556040519116919082907f8be0079c531659141344cd1fd0a4f28419497f9722a3daafe3b4186f6b6457e0905f90a35050565b6001600160a01b038216610a3157604051630b61174360e31b81526001600160a01b03831660048201526024016103f8565b6001600160a01b038381165f81815260056020908152604080832094871680845294825291829020805460ff191686151590811790915591519182527f17307eab39ab6107e8899845ad3d59bd9653f200f220920489ca2b5937696c31910160405180910390a3505050565b6001600160a01b0383163b15610bbe57604051630a85bd0160e11b81526001600160a01b0384169063150b7a0290610adf9088908890879087906004016113fe565b6020604051808303815f875af1925050508015610b19575060408051601f3d908101601f19168201909252610b169181019061143a565b60015b610b80573d808015610b46576040519150601f19603f3d011682016040523d82523d5f602084013e610b4b565b606091505b5080515f03610b7857604051633250574960e11b81526001600160a01b03851660048201526024016103f8565b805181602001fd5b6001600160e01b03198116630a85bd0160e11b14610bbc57604051633250574960e11b81526001600160a01b03851660048201526024016103f8565b505b5050505050565b6060610bd08261084a565b505f610be660408051602081019091525f815290565b90505f815111610c045760405180602001604052805f815250610c2f565b80610c0e84610e06565b604051602001610c1f9291906113c6565b6040516020818303038152906040525b9392505050565b6103cf828260405180602001604052805f815250610e96565b5f828152600660205260409020610c668282611499565b506040518281527ff8e1a15aba9398e019f0b49df1a4fde98ee17ae345cb5f6b5e2c27f5033e8ce79060200160405180910390a15050565b8080610cb257506001600160a01b03821615155b15610d73575f610cc18461084a565b90506001600160a01b03831615801590610ced5750826001600160a01b0316816001600160a01b031614155b8015610d005750610cfe8184610772565b155b15610d295760405163a9fbf51f60e01b81526001600160a01b03841660048201526024016103f8565b8115610d715783856001600160a01b0316826001600160a01b03167f8c5be1e5ebec7d5bd14f71427d1e84f3dd0314c0f7b2291e5b200ac8c7c3b92560405160405180910390a45b505b50505f90815260046020526040902080546001600160a01b0319166001600160a01b0392909216919091179055565b610dad838383610ead565b61047b576001600160a01b038316610ddb57604051637e27328960e01b8152600481018290526024016103f8565b60405163177e802f60e01b81526001600160a01b0383166004820152602481018290526044016103f8565b60605f610e1283610f0e565b60010190505f8167ffffffffffffffff811115610e3157610e316111e6565b6040519080825280601f01601f191660200182016040528015610e5b576020820181803683370190505b5090508181016020015b5f19016f181899199a1a9b1b9c1cb0b131b232b360811b600a86061a8153600a8504945084610e6557509392505050565b610ea08383610fe5565b61047b335f858585610a9d565b5f6001600160a01b0383161580159061068b5750826001600160a01b0316846001600160a01b03161480610ee65750610ee68484610772565b8061068b5750505f908152600460205260409020546001600160a01b03908116911614919050565b5f8072184f03e93ff9f4daa797ed6e38ed64bf6a1f0160401b8310610f4c5772184f03e93ff9f4daa797ed6e38ed64bf6a1f0160401b830492506040015b6d04ee2d6d415b85acef81000000008310610f78576d04ee2d6d415b85acef8100000000830492506020015b662386f26fc100008310610f9657662386f26fc10000830492506010015b6305f5e1008310610fae576305f5e100830492506008015b6127108310610fc257612710830492506004015b60648310610fd4576064830492506002015b600a83106103085760010192915050565b6001600160a01b03821661100e57604051633250574960e11b81525f60048201526024016103f8565b5f61101a83835f61088f565b90506001600160a01b0381161561047b576040516339e3563760e11b81525f60048201526024016103f8565b610535611554565b6001600160e01b0319811681146107d9575f5ffd5b5f60208284031215611073575f5ffd5b8135610c2f8161104e565b5f81518084528060208401602086015e5f602082860101526020601f19601f83011685010191505092915050565b602081525f610c2f602083018461107e565b5f602082840312156110ce575f5ffd5b5035919050565b80356001600160a01b03811681146110eb575f5ffd5b919050565b5f5f60408385031215611101575f5ffd5b61110a836110d5565b946020939093013593505050565b5f5f5f6060848603121561112a575f5ffd5b611133846110d5565b9250611141602085016110d5565b929592945050506040919091013590565b602080825282518282018190525f918401906040840190835b8181101561118957835183526020938401939092019160010161116b565b509095945050505050565b5f602082840312156111a4575f5ffd5b610c2f826110d5565b5f5f604083850312156111be575f5ffd5b6111c7836110d5565b9150602083013580151581146111db575f5ffd5b809150509250929050565b634e487b7160e01b5f52604160045260245ffd5b5f5f67ffffffffffffffff841115611214576112146111e6565b50604051601f19601f85018116603f0116810181811067ffffffffffffffff82111715611243576112436111e6565b60405283815290508082840185101561125a575f5ffd5b838360208301375f60208583010152509392505050565b5f5f5f5f60808587031215611284575f5ffd5b61128d856110d5565b935061129b602086016110d5565b925060408501359150606085013567ffffffffffffffff8111156112bd575f5ffd5b8501601f810187136112cd575f5ffd5b6112dc878235602084016111fa565b91505092959194509250565b5f5f604083850312156112f9575f5ffd5b611302836110d5565b9150602083013567ffffffffffffffff81111561131d575f5ffd5b8301601f8101851361132d575f5ffd5b61133c858235602084016111fa565b9150509250929050565b5f5f60408385031215611357575f5ffd5b611360836110d5565b915061136e602084016110d5565b90509250929050565b600181811c9082168061138b57607f821691505b6020821081036113a957634e487b7160e01b5f52602260045260245ffd5b50919050565b5f81518060208401855e5f93019283525090919050565b5f61068b6113d483866113af565b846113af565b5f600182016113f757634e487b7160e01b5f52601160045260245ffd5b5060010190565b6001600160a01b03858116825284166020820152604081018390526080606082018190525f906114309083018461107e565b9695505050505050565b5f6020828403121561144a575f5ffd5b8151610c2f8161104e565b601f82111561047b57805f5260205f20601f840160051c8101602085101561147a5750805b601f840160051c820191505b81811015610bbe575f8155600101611486565b815167ffffffffffffffff8111156114b3576114b36111e6565b6114c7816114c18454611377565b84611455565b6020601f8211600181146114f9575f83156114e25750848201515b5f19600385901b1c1916600184901b178455610bbe565b5f84815260208120601f198516915b828110156115285787850151825560209485019460019092019101611508565b508482101561154557868401515f19600387901b60f8161c191681555b50505050600190811b01905550565b634e487b7160e01b5f52605160045260245ffdfea2646970667358221220a9157dda07c37a076ee05d5987f3b0d583efa3cd7a6e3abde050c003aed6346664736f6c634300081c0033a26469706673582212204bd433e89d13389608dbcd01a09e080d60c4d284e3bb7494509bfe339f949e8c64736f6c634300081c0033",
    "linkReferences": {}
  },
  "methodIdentifiers": {
    "collectionToTokens(address,uint256)": "e12ade26",
    "collections(uint256)": "fdbda0ec",
    "createNewCollection(string,string,string)": "6eda758e",
    "getAllCollections()": "6804a958",
    "getCollectionTokens(address)": "6bbdb812",
    "getUserCollectionAtIndex(address,uint256)": "3ed87794",
    "getUserCollections(address)": "9aa5ad8c",
    "isHTTPS(string)": "24eac919",
    "mintNFT(address,string)": "eacabe14",
    "userCollections(address,uint256)": "428a6171"
  },
  "id": 38
}